{
  "contractName": "DNS",
  "abi": [
    {
      "inputs": [],
      "stateMutability": "payable",
      "type": "constructor",
      "payable": true
    },
    {
      "anonymous": false,
      "inputs": [
        {
          "indexed": true,
          "internalType": "address",
          "name": "owner",
          "type": "address"
        },
        {
          "indexed": true,
          "internalType": "address",
          "name": "approved",
          "type": "address"
        },
        {
          "indexed": true,
          "internalType": "uint256",
          "name": "tokenId",
          "type": "uint256"
        }
      ],
      "name": "Approval",
      "type": "event"
    },
    {
      "anonymous": false,
      "inputs": [
        {
          "indexed": true,
          "internalType": "address",
          "name": "owner",
          "type": "address"
        },
        {
          "indexed": true,
          "internalType": "address",
          "name": "operator",
          "type": "address"
        },
        {
          "indexed": false,
          "internalType": "bool",
          "name": "approved",
          "type": "bool"
        }
      ],
      "name": "ApprovalForAll",
      "type": "event"
    },
    {
      "anonymous": false,
      "inputs": [
        {
          "indexed": false,
          "internalType": "string",
          "name": "name",
          "type": "string"
        },
        {
          "indexed": false,
          "internalType": "string",
          "name": "symbol",
          "type": "string"
        },
        {
          "indexed": false,
          "internalType": "address",
          "name": "owner",
          "type": "address"
        }
      ],
      "name": "DNSCreated",
      "type": "event"
    },
    {
      "anonymous": false,
      "inputs": [
        {
          "indexed": true,
          "internalType": "address",
          "name": "previousOwner",
          "type": "address"
        },
        {
          "indexed": true,
          "internalType": "address",
          "name": "newOwner",
          "type": "address"
        }
      ],
      "name": "OwnershipTransferred",
      "type": "event"
    },
    {
      "anonymous": false,
      "inputs": [
        {
          "indexed": false,
          "internalType": "address",
          "name": "to",
          "type": "address"
        },
        {
          "indexed": false,
          "internalType": "string",
          "name": "did",
          "type": "string"
        },
        {
          "indexed": false,
          "internalType": "string",
          "name": "name",
          "type": "string"
        },
        {
          "indexed": false,
          "internalType": "bool",
          "name": "isRegistered",
          "type": "bool"
        }
      ],
      "name": "Registered",
      "type": "event"
    },
    {
      "anonymous": false,
      "inputs": [
        {
          "indexed": true,
          "internalType": "address",
          "name": "from",
          "type": "address"
        },
        {
          "indexed": true,
          "internalType": "address",
          "name": "to",
          "type": "address"
        },
        {
          "indexed": true,
          "internalType": "uint256",
          "name": "tokenId",
          "type": "uint256"
        }
      ],
      "name": "Transfer",
      "type": "event"
    },
    {
      "anonymous": false,
      "inputs": [
        {
          "indexed": false,
          "internalType": "string",
          "name": "did",
          "type": "string"
        },
        {
          "indexed": false,
          "internalType": "string",
          "name": "name",
          "type": "string"
        },
        {
          "indexed": false,
          "internalType": "string",
          "name": "cid",
          "type": "string"
        }
      ],
      "name": "UpdateVc",
      "type": "event"
    },
    {
      "inputs": [
        {
          "internalType": "string",
          "name": "",
          "type": "string"
        }
      ],
      "name": "addrs",
      "outputs": [
        {
          "internalType": "address",
          "name": "",
          "type": "address"
        }
      ],
      "stateMutability": "view",
      "type": "function",
      "constant": true
    },
    {
      "inputs": [
        {
          "internalType": "address",
          "name": "to",
          "type": "address"
        },
        {
          "internalType": "uint256",
          "name": "tokenId",
          "type": "uint256"
        }
      ],
      "name": "approve",
      "outputs": [],
      "stateMutability": "nonpayable",
      "type": "function"
    },
    {
      "inputs": [
        {
          "internalType": "address",
          "name": "owner",
          "type": "address"
        }
      ],
      "name": "balanceOf",
      "outputs": [
        {
          "internalType": "uint256",
          "name": "",
          "type": "uint256"
        }
      ],
      "stateMutability": "view",
      "type": "function",
      "constant": true
    },
    {
      "inputs": [
        {
          "internalType": "address",
          "name": "",
          "type": "address"
        }
      ],
      "name": "dids",
      "outputs": [
        {
          "internalType": "string",
          "name": "",
          "type": "string"
        }
      ],
      "stateMutability": "view",
      "type": "function",
      "constant": true
    },
    {
      "inputs": [
        {
          "internalType": "string",
          "name": "",
          "type": "string"
        }
      ],
      "name": "domains",
      "outputs": [
        {
          "internalType": "string",
          "name": "",
          "type": "string"
        }
      ],
      "stateMutability": "view",
      "type": "function",
      "constant": true
    },
    {
      "inputs": [
        {
          "internalType": "uint256",
          "name": "tokenId",
          "type": "uint256"
        }
      ],
      "name": "getApproved",
      "outputs": [
        {
          "internalType": "address",
          "name": "",
          "type": "address"
        }
      ],
      "stateMutability": "view",
      "type": "function",
      "constant": true
    },
    {
      "inputs": [
        {
          "internalType": "address",
          "name": "owner",
          "type": "address"
        },
        {
          "internalType": "address",
          "name": "operator",
          "type": "address"
        }
      ],
      "name": "isApprovedForAll",
      "outputs": [
        {
          "internalType": "bool",
          "name": "",
          "type": "bool"
        }
      ],
      "stateMutability": "view",
      "type": "function",
      "constant": true
    },
    {
      "inputs": [
        {
          "internalType": "address",
          "name": "",
          "type": "address"
        }
      ],
      "name": "isRegistered",
      "outputs": [
        {
          "internalType": "bool",
          "name": "",
          "type": "bool"
        }
      ],
      "stateMutability": "view",
      "type": "function",
      "constant": true
    },
    {
      "inputs": [],
      "name": "name",
      "outputs": [
        {
          "internalType": "string",
          "name": "",
          "type": "string"
        }
      ],
      "stateMutability": "view",
      "type": "function",
      "constant": true
    },
    {
      "inputs": [
        {
          "internalType": "uint256",
          "name": "",
          "type": "uint256"
        }
      ],
      "name": "names",
      "outputs": [
        {
          "internalType": "string",
          "name": "",
          "type": "string"
        }
      ],
      "stateMutability": "view",
      "type": "function",
      "constant": true
    },
    {
      "inputs": [],
      "name": "owner",
      "outputs": [
        {
          "internalType": "address payable",
          "name": "",
          "type": "address"
        }
      ],
      "stateMutability": "view",
      "type": "function",
      "constant": true
    },
    {
      "inputs": [
        {
          "internalType": "uint256",
          "name": "tokenId",
          "type": "uint256"
        }
      ],
      "name": "ownerOf",
      "outputs": [
        {
          "internalType": "address",
          "name": "",
          "type": "address"
        }
      ],
      "stateMutability": "view",
      "type": "function",
      "constant": true
    },
    {
      "inputs": [
        {
          "internalType": "string",
          "name": "",
          "type": "string"
        }
      ],
      "name": "records",
      "outputs": [
        {
          "internalType": "string",
          "name": "",
          "type": "string"
        }
      ],
      "stateMutability": "view",
      "type": "function",
      "constant": true
    },
    {
      "inputs": [
        {
          "internalType": "address",
          "name": "from",
          "type": "address"
        },
        {
          "internalType": "address",
          "name": "to",
          "type": "address"
        },
        {
          "internalType": "uint256",
          "name": "tokenId",
          "type": "uint256"
        }
      ],
      "name": "safeTransferFrom",
      "outputs": [],
      "stateMutability": "nonpayable",
      "type": "function"
    },
    {
      "inputs": [
        {
          "internalType": "address",
          "name": "from",
          "type": "address"
        },
        {
          "internalType": "address",
          "name": "to",
          "type": "address"
        },
        {
          "internalType": "uint256",
          "name": "tokenId",
          "type": "uint256"
        },
        {
          "internalType": "bytes",
          "name": "data",
          "type": "bytes"
        }
      ],
      "name": "safeTransferFrom",
      "outputs": [],
      "stateMutability": "nonpayable",
      "type": "function"
    },
    {
      "inputs": [
        {
          "internalType": "address",
          "name": "operator",
          "type": "address"
        },
        {
          "internalType": "bool",
          "name": "approved",
          "type": "bool"
        }
      ],
      "name": "setApprovalForAll",
      "outputs": [],
      "stateMutability": "nonpayable",
      "type": "function"
    },
    {
      "inputs": [
        {
          "internalType": "bytes4",
          "name": "interfaceId",
          "type": "bytes4"
        }
      ],
      "name": "supportsInterface",
      "outputs": [
        {
          "internalType": "bool",
          "name": "",
          "type": "bool"
        }
      ],
      "stateMutability": "view",
      "type": "function",
      "constant": true
    },
    {
      "inputs": [],
      "name": "symbol",
      "outputs": [
        {
          "internalType": "string",
          "name": "",
          "type": "string"
        }
      ],
      "stateMutability": "view",
      "type": "function",
      "constant": true
    },
    {
      "inputs": [
        {
          "internalType": "uint256",
          "name": "tokenId",
          "type": "uint256"
        }
      ],
      "name": "tokenURI",
      "outputs": [
        {
          "internalType": "string",
          "name": "",
          "type": "string"
        }
      ],
      "stateMutability": "view",
      "type": "function",
      "constant": true
    },
    {
      "inputs": [
        {
          "internalType": "address",
          "name": "from",
          "type": "address"
        },
        {
          "internalType": "address",
          "name": "to",
          "type": "address"
        },
        {
          "internalType": "uint256",
          "name": "tokenId",
          "type": "uint256"
        }
      ],
      "name": "transferFrom",
      "outputs": [],
      "stateMutability": "nonpayable",
      "type": "function"
    },
    {
      "inputs": [
        {
          "internalType": "string",
          "name": "",
          "type": "string"
        },
        {
          "internalType": "uint256",
          "name": "",
          "type": "uint256"
        }
      ],
      "name": "vcs",
      "outputs": [
        {
          "internalType": "string",
          "name": "name",
          "type": "string"
        },
        {
          "internalType": "string",
          "name": "cid",
          "type": "string"
        }
      ],
      "stateMutability": "view",
      "type": "function",
      "constant": true
    },
    {
      "inputs": [
        {
          "internalType": "string",
          "name": "name",
          "type": "string"
        },
        {
          "internalType": "string",
          "name": "did",
          "type": "string"
        },
        {
          "internalType": "address",
          "name": "to",
          "type": "address"
        }
      ],
      "name": "register",
      "outputs": [],
      "stateMutability": "nonpayable",
      "type": "function"
    },
    {
      "inputs": [
        {
          "internalType": "string",
          "name": "name",
          "type": "string"
        }
      ],
      "name": "getDidInfo",
      "outputs": [
        {
          "internalType": "string",
          "name": "",
          "type": "string"
        }
      ],
      "stateMutability": "view",
      "type": "function",
      "constant": true
    },
    {
      "inputs": [],
      "name": "isOwner",
      "outputs": [
        {
          "internalType": "bool",
          "name": "",
          "type": "bool"
        }
      ],
      "stateMutability": "view",
      "type": "function",
      "constant": true
    },
    {
      "inputs": [],
      "name": "getAllNames",
      "outputs": [
        {
          "internalType": "string[]",
          "name": "",
          "type": "string[]"
        }
      ],
      "stateMutability": "view",
      "type": "function",
      "constant": true
    },
    {
      "inputs": [
        {
          "internalType": "string",
          "name": "name",
          "type": "string"
        }
      ],
      "name": "valid",
      "outputs": [
        {
          "internalType": "bool",
          "name": "",
          "type": "bool"
        }
      ],
      "stateMutability": "pure",
      "type": "function",
      "constant": true
    },
    {
      "inputs": [
        {
          "internalType": "string",
          "name": "_did",
          "type": "string"
        }
      ],
      "name": "getVcs",
      "outputs": [
        {
          "components": [
            {
              "internalType": "string",
              "name": "name",
              "type": "string"
            },
            {
              "internalType": "string",
              "name": "cid",
              "type": "string"
            }
          ],
          "internalType": "struct IDNS.VcInfo[]",
          "name": "",
          "type": "tuple[]"
        }
      ],
      "stateMutability": "view",
      "type": "function",
      "constant": true
    },
    {
      "inputs": [
        {
          "internalType": "string",
          "name": "_did",
          "type": "string"
        },
        {
          "internalType": "string",
          "name": "_name",
          "type": "string"
        },
        {
          "internalType": "string",
          "name": "_cid",
          "type": "string"
        }
      ],
      "name": "updateVc",
      "outputs": [],
      "stateMutability": "nonpayable",
      "type": "function"
    },
    {
      "inputs": [
        {
          "internalType": "address",
          "name": "newOwner",
          "type": "address"
        }
      ],
      "name": "transferOwnership",
      "outputs": [],
      "stateMutability": "nonpayable",
      "type": "function"
    }
  ],
  "bytecode": "0x6080604052604051806108a0016040528061086b81526020016200556661086b9139600890805190602001906200003892919062000302565b506040518060400160405280600d81526020017f3c2f746578743e3c2f7376673e00000000000000000000000000000000000000815250600990805190602001906200008692919062000302565b506040518060400160405280601081526020017f444944204e616d652053657276696365000000000000000000000000000000008152506040518060400160405280600381526020017f444e53000000000000000000000000000000000000000000000000000000000081525081600090805190602001906200010b92919062000302565b5080600190805190602001906200012492919062000302565b50505033600a60006101000a81548173ffffffffffffffffffffffffffffffffffffffff021916908373ffffffffffffffffffffffffffffffffffffffff160217905550620001d66040518060400160405280600681526020017f6f776e65723a0000000000000000000000000000000000000000000000000000815250600a60009054906101000a900473ffffffffffffffffffffffffffffffffffffffff166200023760201b62001c9e1760201c565b7f8afccc57bdfd45dbde12632191d431890e3a80c859c83a6aae29429bce0a1b2b600a60009054906101000a900473ffffffffffffffffffffffffffffffffffffffff16604051620002299190620004ee565b60405180910390a162000686565b620002d9828260405160240162000250929190620005ed565b6040516020818303038152906040527f319af333000000000000000000000000000000000000000000000000000000007bffffffffffffffffffffffffffffffffffffffffffffffffffffffff19166020820180517bffffffffffffffffffffffffffffffffffffffffffffffffffffffff8381831617835250505050620002dd60201b60201c565b5050565b60006a636f6e736f6c652e6c6f6790508151602083016000808383865afa5050505050565b828054620003109062000650565b90600052602060002090601f01602090048101928262000334576000855562000380565b82601f106200034f57805160ff191683800117855562000380565b8280016001018555821562000380579182015b828111156200037f57825182559160200191906001019062000362565b5b5090506200038f919062000393565b5090565b5b80821115620003ae57600081600090555060010162000394565b5090565b600082825260208201905092915050565b7f444944204e616d65205365727669636500000000000000000000000000000000600082015250565b6000620003fb601083620003b2565b91506200040882620003c3565b602082019050919050565b7f444e530000000000000000000000000000000000000000000000000000000000600082015250565b60006200044b600383620003b2565b9150620004588262000413565b602082019050919050565b600073ffffffffffffffffffffffffffffffffffffffff82169050919050565b6000819050919050565b6000620004ae620004a8620004a28462000463565b62000483565b62000463565b9050919050565b6000620004c2826200048d565b9050919050565b6000620004d682620004b5565b9050919050565b620004e881620004c9565b82525050565b600060608201905081810360008301526200050981620003ec565b905081810360208301526200051e816200043c565b90506200052f6040830184620004dd565b92915050565b600081519050919050565b60005b838110156200056057808201518184015260208101905062000543565b8381111562000570576000848401525b50505050565b6000601f19601f8301169050919050565b6000620005948262000535565b620005a08185620003b2565b9350620005b281856020860162000540565b620005bd8162000576565b840191505092915050565b6000620005d58262000463565b9050919050565b620005e781620005c8565b82525050565b6000604082019050818103600083015262000609818562000587565b90506200061a6020830184620005dc565b9392505050565b7f4e487b7100000000000000000000000000000000000000000000000000000000600052602260045260246000fd5b600060028204905060018216806200066957607f821691505b6020821081141562000680576200067f62000621565b5b50919050565b614ed080620006966000396000f3fe608060405234801561001057600080fd5b50600436106101cf5760003560e01c8063755c808711610104578063b5d68ccd116100a2578063e5b0ef9b11610071578063e5b0ef9b146105c5578063e985e9c5146105e1578063f2fde38b14610611578063fb825e5f1461062d576101cf565b8063b5d68ccd14610519578063b88d4fde14610549578063c3c5a54714610565578063c87b56dd14610595576101cf565b806395d89b41116100de57806395d89b411461047e5780639791c0971461049c578063a22cb465146104cc578063afe32cb2146104e8576101cf565b8063755c8087146104125780638da5cb5b146104425780638f32d59b14610460576101cf565b80633593f81b11610171578063541e771d1161014b578063541e771d146103665780635664d69c146103965780636352211e146103b257806370a08231146103e2576101cf565b80633593f81b146102ea57806342842e0e1461031a5780634622ab0314610336576101cf565b8063095ea7b3116101ad578063095ea7b31461025257806323b872dd1461026e578063264492351461028a5780632cc2548f146102ba576101cf565b806301ffc9a7146101d457806306fdde0314610204578063081812fc14610222575b600080fd5b6101ee60048036038101906101e9919061337f565b61064b565b6040516101fb91906133c7565b60405180910390f35b61020c61072d565b604051610219919061347b565b60405180910390f35b61023c600480360381019061023791906134d3565b6107bf565b6040516102499190613541565b60405180910390f35b61026c60048036038101906102679190613588565b610805565b005b610288600480360381019061028391906135c8565b61091d565b005b6102a4600480360381019061029f9190613750565b61097d565b6040516102b1919061347b565b60405180910390f35b6102d460048036038101906102cf9190613750565b610a33565b6040516102e19190613541565b60405180910390f35b61030460048036038101906102ff9190613799565b610a7c565b604051610311919061347b565b60405180910390f35b610334600480360381019061032f91906135c8565b610b1c565b005b610350600480360381019061034b91906134d3565b610b3c565b60405161035d919061347b565b60405180910390f35b610380600480360381019061037b9190613750565b610bdc565b60405161038d919061347b565b60405180910390f35b6103b060048036038101906103ab9190613826565b610c92565b005b6103cc60048036038101906103c791906134d3565b6110c2565b6040516103d99190613541565b60405180910390f35b6103fc60048036038101906103f79190613799565b611149565b60405161040991906138ca565b60405180910390f35b61042c60048036038101906104279190613750565b611201565b6040516104399190613a35565b60405180910390f35b61044a6113a2565b6040516104579190613a78565b60405180910390f35b6104686113c8565b60405161047591906133c7565b60405180910390f35b610486611420565b604051610493919061347b565b60405180910390f35b6104b660048036038101906104b19190613a93565b6114b2565b6040516104c391906133c7565b60405180910390f35b6104e660048036038101906104e19190613b0c565b611566565b005b61050260048036038101906104fd9190613b4c565b61157c565b604051610510929190613ba8565b60405180910390f35b610533600480360381019061052e9190613a93565b6116e3565b604051610540919061347b565b60405180910390f35b610563600480360381019061055e9190613c80565b611796565b005b61057f600480360381019061057a9190613799565b6117f8565b60405161058c91906133c7565b60405180910390f35b6105af60048036038101906105aa91906134d3565b611818565b6040516105bc919061347b565b60405180910390f35b6105df60048036038101906105da9190613d03565b61192b565b005b6105fb60048036038101906105f69190613daa565b611a37565b60405161060891906133c7565b60405180910390f35b61062b60048036038101906106269190613799565b611acb565b005b610635611b58565b6040516106429190613eac565b60405180910390f35b60007f80ac58cd000000000000000000000000000000000000000000000000000000007bffffffffffffffffffffffffffffffffffffffffffffffffffffffff1916827bffffffffffffffffffffffffffffffffffffffffffffffffffffffff1916148061071657507f5b5e139f000000000000000000000000000000000000000000000000000000007bffffffffffffffffffffffffffffffffffffffffffffffffffffffff1916827bffffffffffffffffffffffffffffffffffffffffffffffffffffffff1916145b80610726575061072582611d3a565b5b9050919050565b60606000805461073c90613efd565b80601f016020809104026020016040519081016040528092919081815260200182805461076890613efd565b80156107b55780601f1061078a576101008083540402835291602001916107b5565b820191906000526020600020905b81548152906001019060200180831161079857829003601f168201915b5050505050905090565b60006107ca82611da4565b6004600083815260200190815260200160002060009054906101000a900473ffffffffffffffffffffffffffffffffffffffff169050919050565b6000610810826110c2565b90508073ffffffffffffffffffffffffffffffffffffffff168373ffffffffffffffffffffffffffffffffffffffff161415610881576040517f08c379a000000000000000000000000000000000000000000000000000000000815260040161087890613fa1565b60405180910390fd5b8073ffffffffffffffffffffffffffffffffffffffff166108a0611def565b73ffffffffffffffffffffffffffffffffffffffff1614806108cf57506108ce816108c9611def565b611a37565b5b61090e576040517f08c379a000000000000000000000000000000000000000000000000000000000815260040161090590614033565b60405180910390fd5b6109188383611df7565b505050565b61092e610928611def565b82611eb0565b61096d576040517f08c379a0000000000000000000000000000000000000000000000000000000008152600401610964906140c5565b60405180910390fd5b610978838383611f45565b505050565b600b8180516020810182018051848252602083016020850120818352809550505050505060009150905080546109b290613efd565b80601f01602080910402602001604051908101604052809291908181526020018280546109de90613efd565b8015610a2b5780601f10610a0057610100808354040283529160200191610a2b565b820191906000526020600020905b815481529060010190602001808311610a0e57829003601f168201915b505050505081565b6010818051602081018201805184825260208301602085012081835280955050505050506000915054906101000a900473ffffffffffffffffffffffffffffffffffffffff1681565b600f6020528060005260406000206000915090508054610a9b90613efd565b80601f0160208091040260200160405190810160405280929190818152602001828054610ac790613efd565b8015610b145780601f10610ae957610100808354040283529160200191610b14565b820191906000526020600020905b815481529060010190602001808311610af757829003601f168201915b505050505081565b610b3783838360405180602001604052806000815250611796565b505050565b600d6020528060005260406000206000915090508054610b5b90613efd565b80601f0160208091040260200160405190810160405280929190818152602001828054610b8790613efd565b8015610bd45780601f10610ba957610100808354040283529160200191610bd4565b820191906000526020600020905b815481529060010190602001808311610bb757829003601f168201915b505050505081565b600c818051602081018201805184825260208301602085012081835280955050505050506000915090508054610c1190613efd565b80601f0160208091040260200160405190810160405280929190818152602001828054610c3d90613efd565b8015610c8a5780601f10610c5f57610100808354040283529160200191610c8a565b820191906000526020600020905b815481529060010190602001808311610c6d57829003601f168201915b505050505081565b610c9c85856114b2565b610cdb576040517f08c379a0000000000000000000000000000000000000000000000000000000008152600401610cd290614131565b60405180910390fd5b600e60008273ffffffffffffffffffffffffffffffffffffffff1673ffffffffffffffffffffffffffffffffffffffff16815260200190815260200160002060009054906101000a900460ff1615610d68576040517f08c379a0000000000000000000000000000000000000000000000000000000008152600401610d5f906141c3565b60405180910390fd5b60008585604051602001610d7d929190614213565b604051602081830303815290604052905060006008826009604051602001610da7939291906142f1565b60405160208183030381529060405290506000610dc4600761223f565b90506000610e1589898080601f016020809104026020016040519081016040528093929190818152602001838380828437600081840152601f19601f8201169050808301925050505050505061224d565b90506000610e2282612402565b90506000610e5a86610e33876124da565b84604051602001610e469392919061449e565b6040516020818303038152906040526124da565b9050600081604051602001610e6f9190614547565b60405160208183030381529060405290508989600b8e8e604051610e94929190614213565b90815260200160405180910390209190610eaf92919061304e565b508b8b600c8c8c604051610ec4929190614213565b90815260200160405180910390209190610edf92919061304e565b508b8b600d60008881526020019081526020016000209190610f0292919061304e565b508989600f60008b73ffffffffffffffffffffffffffffffffffffffff1673ffffffffffffffffffffffffffffffffffffffff1681526020019081526020016000209190610f5192919061304e565b508760108b8b604051610f65929190614213565b908152602001604051809103902060006101000a81548173ffffffffffffffffffffffffffffffffffffffff021916908373ffffffffffffffffffffffffffffffffffffffff1602179055506001600e60008a73ffffffffffffffffffffffffffffffffffffffff1673ffffffffffffffffffffffffffffffffffffffff16815260200190815260200160002060006101000a81548160ff0219169083151502179055506110138886612672565b61101d8582612690565b6110276007612704565b7fbb4be4b27a5dd3dc35ab4cbe1987902ec6396a44c9faabab6a5a0cb1cfd41c60888b8b8f8f600e60008f73ffffffffffffffffffffffffffffffffffffffff1673ffffffffffffffffffffffffffffffffffffffff16815260200190815260200160002060009054906101000a900460ff166040516110ac96959493929190614596565b60405180910390a1505050505050505050505050565b6000806110ce8361271a565b9050600073ffffffffffffffffffffffffffffffffffffffff168173ffffffffffffffffffffffffffffffffffffffff161415611140576040517f08c379a000000000000000000000000000000000000000000000000000000000815260040161113790614639565b60405180910390fd5b80915050919050565b60008073ffffffffffffffffffffffffffffffffffffffff168273ffffffffffffffffffffffffffffffffffffffff1614156111ba576040517f08c379a00000000000000000000000000000000000000000000000000000000081526004016111b1906146cb565b60405180910390fd5b600360008373ffffffffffffffffffffffffffffffffffffffff1673ffffffffffffffffffffffffffffffffffffffff168152602001908152602001600020549050919050565b606060118260405161121391906146eb565b9081526020016040518091039020805480602002602001604051908101604052809291908181526020016000905b82821015611397578382906000526020600020906002020160405180604001604052908160008201805461127490613efd565b80601f01602080910402602001604051908101604052809291908181526020018280546112a090613efd565b80156112ed5780601f106112c2576101008083540402835291602001916112ed565b820191906000526020600020905b8154815290600101906020018083116112d057829003601f168201915b5050505050815260200160018201805461130690613efd565b80601f016020809104026020016040519081016040528092919081815260200182805461133290613efd565b801561137f5780601f106113545761010080835404028352916020019161137f565b820191906000526020600020905b81548152906001019060200180831161136257829003601f168201915b50505050508152505081526020019060010190611241565b505050509050919050565b600a60009054906101000a900473ffffffffffffffffffffffffffffffffffffffff1681565b6000600a60009054906101000a900473ffffffffffffffffffffffffffffffffffffffff1673ffffffffffffffffffffffffffffffffffffffff163373ffffffffffffffffffffffffffffffffffffffff1614905090565b60606001805461142f90613efd565b80601f016020809104026020016040519081016040528092919081815260200182805461145b90613efd565b80156114a85780601f1061147d576101008083540402835291602001916114a8565b820191906000526020600020905b81548152906001019060200180831161148b57829003601f168201915b5050505050905090565b6000600361150384848080601f016020809104026020016040519081016040528093929190818152602001838380828437600081840152601f19601f8201169050808301925050505050505061224d565b1015801561155e5750601e61155b84848080601f016020809104026020016040519081016040528093929190818152602001838380828437600081840152601f19601f8201169050808301925050505050505061224d565b11155b905092915050565b611578611571611def565b8383612757565b5050565b60118280516020810182018051848252602083016020850120818352809550505050505081815481106115ae57600080fd5b9060005260206000209060020201600091509150508060000180546115d290613efd565b80601f01602080910402602001604051908101604052809291908181526020018280546115fe90613efd565b801561164b5780601f106116205761010080835404028352916020019161164b565b820191906000526020600020905b81548152906001019060200180831161162e57829003601f168201915b50505050509080600101805461166090613efd565b80601f016020809104026020016040519081016040528092919081815260200182805461168c90613efd565b80156116d95780601f106116ae576101008083540402835291602001916116d9565b820191906000526020600020905b8154815290600101906020018083116116bc57829003601f168201915b5050505050905082565b6060600b83836040516116f7929190614213565b9081526020016040518091039020805461171090613efd565b80601f016020809104026020016040519081016040528092919081815260200182805461173c90613efd565b80156117895780601f1061175e57610100808354040283529160200191611789565b820191906000526020600020905b81548152906001019060200180831161176c57829003601f168201915b5050505050905092915050565b6117a76117a1611def565b83611eb0565b6117e6576040517f08c379a00000000000000000000000000000000000000000000000000000000081526004016117dd906140c5565b60405180910390fd5b6117f2848484846128c4565b50505050565b600e6020528060005260406000206000915054906101000a900460ff1681565b606061182382611da4565b600060066000848152602001908152602001600020805461184390613efd565b80601f016020809104026020016040519081016040528092919081815260200182805461186f90613efd565b80156118bc5780601f10611891576101008083540402835291602001916118bc565b820191906000526020600020905b81548152906001019060200180831161189f57829003601f168201915b5050505050905060006118cd612920565b90506000815114156118e3578192505050611926565b600082511115611918578082604051602001611900929190614702565b60405160208183030381529060405292505050611926565b61192184612937565b925050505b919050565b600060118460405161193d91906146eb565b9081526020016040518091039020905080604051806040016040528085815260200184815250908060018154018082558091505060019003906000526020600020906002020160009091909190915060008201518160000190805190602001906119a89291906130d4565b5060208201518160010190805190602001906119c59291906130d4565b505050806011856040516119d991906146eb565b90815260200160405180910390209080546119f592919061315a565b507fd5c19fc9dc85cfc871c6518df5171b1700cd52654bb810e4fdb2daa01013933f848484604051611a2993929190614726565b60405180910390a150505050565b6000600560008473ffffffffffffffffffffffffffffffffffffffff1673ffffffffffffffffffffffffffffffffffffffff16815260200190815260200160002060008373ffffffffffffffffffffffffffffffffffffffff1673ffffffffffffffffffffffffffffffffffffffff16815260200190815260200160002060009054906101000a900460ff16905092915050565b611ad36113c8565b611adc57600080fd5b600073ffffffffffffffffffffffffffffffffffffffff168173ffffffffffffffffffffffffffffffffffffffff161415611b4c576040517f08c379a0000000000000000000000000000000000000000000000000000000008152600401611b43906147e4565b60405180910390fd5b611b558161299f565b50565b60606000611b66600761223f565b67ffffffffffffffff811115611b7f57611b7e613625565b5b604051908082528060200260200182016040528015611bb257816020015b6060815260200190600190039081611b9d5790505b50905060005b611bc2600761223f565b811015611c9657600d60008281526020019081526020016000208054611be790613efd565b80601f0160208091040260200160405190810160405280929190818152602001828054611c1390613efd565b8015611c605780601f10611c3557610100808354040283529160200191611c60565b820191906000526020600020905b815481529060010190602001808311611c4357829003601f168201915b5050505050828281518110611c7857611c77614804565b5b60200260200101819052508080611c8e90614862565b915050611bb8565b508091505090565b611d368282604051602401611cb49291906148ab565b6040516020818303038152906040527f319af333000000000000000000000000000000000000000000000000000000007bffffffffffffffffffffffffffffffffffffffffffffffffffffffff19166020820180517bffffffffffffffffffffffffffffffffffffffffffffffffffffffff8381831617835250505050612a65565b5050565b60007f01ffc9a7000000000000000000000000000000000000000000000000000000007bffffffffffffffffffffffffffffffffffffffffffffffffffffffff1916827bffffffffffffffffffffffffffffffffffffffffffffffffffffffff1916149050919050565b611dad81612a8a565b611dec576040517f08c379a0000000000000000000000000000000000000000000000000000000008152600401611de390614639565b60405180910390fd5b50565b600033905090565b816004600083815260200190815260200160002060006101000a81548173ffffffffffffffffffffffffffffffffffffffff021916908373ffffffffffffffffffffffffffffffffffffffff160217905550808273ffffffffffffffffffffffffffffffffffffffff16611e6a836110c2565b73ffffffffffffffffffffffffffffffffffffffff167f8c5be1e5ebec7d5bd14f71427d1e84f3dd0314c0f7b2291e5b200ac8c7c3b92560405160405180910390a45050565b600080611ebc836110c2565b90508073ffffffffffffffffffffffffffffffffffffffff168473ffffffffffffffffffffffffffffffffffffffff161480611efe5750611efd8185611a37565b5b80611f3c57508373ffffffffffffffffffffffffffffffffffffffff16611f24846107bf565b73ffffffffffffffffffffffffffffffffffffffff16145b91505092915050565b8273ffffffffffffffffffffffffffffffffffffffff16611f65826110c2565b73ffffffffffffffffffffffffffffffffffffffff1614611fbb576040517f08c379a0000000000000000000000000000000000000000000000000000000008152600401611fb29061494d565b60405180910390fd5b600073ffffffffffffffffffffffffffffffffffffffff168273ffffffffffffffffffffffffffffffffffffffff16141561202b576040517f08c379a0000000000000000000000000000000000000000000000000000000008152600401612022906149df565b60405180910390fd5b6120388383836001612acb565b8273ffffffffffffffffffffffffffffffffffffffff16612058826110c2565b73ffffffffffffffffffffffffffffffffffffffff16146120ae576040517f08c379a00000000000000000000000000000000000000000000000000000000081526004016120a59061494d565b60405180910390fd5b6004600082815260200190815260200160002060006101000a81549073ffffffffffffffffffffffffffffffffffffffff02191690556001600360008573ffffffffffffffffffffffffffffffffffffffff1673ffffffffffffffffffffffffffffffffffffffff168152602001908152602001600020600082825403925050819055506001600360008473ffffffffffffffffffffffffffffffffffffffff1673ffffffffffffffffffffffffffffffffffffffff16815260200190815260200160002060008282540192505081905550816002600083815260200190815260200160002060006101000a81548173ffffffffffffffffffffffffffffffffffffffff021916908373ffffffffffffffffffffffffffffffffffffffff160217905550808273ffffffffffffffffffffffffffffffffffffffff168473ffffffffffffffffffffffffffffffffffffffff167fddf252ad1be2c89b69c2b068fc378daa952ba7f163c4a11628f55a4df523b3ef60405160405180910390a461223a8383836001612ad1565b505050565b600081600001549050919050565b60008060008084519050600092505b808210156123f757600085838151811061227957612278614804565b5b602001015160f81c60f81b9050608060f81b817effffffffffffffffffffffffffffffffffffffffffffffffffffffffffffff191610156122c8576001836122c191906149ff565b92506123e3565b60e060f81b817effffffffffffffffffffffffffffffffffffffffffffffffffffffffffffff1916101561230a5760028361230391906149ff565b92506123e2565b60f060f81b817effffffffffffffffffffffffffffffffffffffffffffffffffffffffffffff1916101561234c5760038361234591906149ff565b92506123e1565b60f8801b817effffffffffffffffffffffffffffffffffffffffffffffffffffffffffffff1916101561238d5760048361238691906149ff565b92506123e0565b60fc60f81b817effffffffffffffffffffffffffffffffffffffffffffffffffffffffffffff191610156123cf576005836123c891906149ff565b92506123df565b6006836123dc91906149ff565b92505b5b5b5b5b5082806123ef90614862565b93505061225c565b829350505050919050565b60606000600161241184612ad7565b01905060008167ffffffffffffffff8111156124305761242f613625565b5b6040519080825280601f01601f1916602001820160405280156124625781602001600182028036833780820191505090505b509050600082602001820190505b6001156124cf578080600190039150507f3031323334353637383961626364656600000000000000000000000000000000600a86061a8153600a85816124b9576124b8614a55565b5b04945060008514156124ca576124cf565b612470565b819350505050919050565b60606000825190506000811415612503576040518060200160405280600081525091505061266d565b6000600360028361251491906149ff565b61251e9190614a84565b600461252a9190614ab5565b9050600060208261253b91906149ff565b67ffffffffffffffff81111561255457612553613625565b5b6040519080825280601f01601f1916602001820160405280156125865781602001600182028036833780820191505090505b5090506000604051806060016040528060408152602001614e5b604091399050600181016020830160005b8681101561262a5760038101905062ffffff818a015116603f8160121c168401518060081b905060ff603f83600c1c1686015116810190508060081b905060ff603f8360061c1686015116810190508060081b905060ff603f831686015116810190508060e01b905080845260048401935050506125b1565b50600386066001811461264457600281146126545761265f565b613d3d60f01b600283035261265f565b603d60f81b60018303525b508484525050819450505050505b919050565b61268c828260405180602001604052806000815250612c2a565b5050565b61269982612a8a565b6126d8576040517f08c379a00000000000000000000000000000000000000000000000000000000081526004016126cf90614b81565b60405180910390fd5b806006600084815260200190815260200160002090805190602001906126ff9291906130d4565b505050565b6001816000016000828254019250508190555050565b60006002600083815260200190815260200160002060009054906101000a900473ffffffffffffffffffffffffffffffffffffffff169050919050565b8173ffffffffffffffffffffffffffffffffffffffff168373ffffffffffffffffffffffffffffffffffffffff1614156127c6576040517f08c379a00000000000000000000000000000000000000000000000000000000081526004016127bd90614bed565b60405180910390fd5b80600560008573ffffffffffffffffffffffffffffffffffffffff1673ffffffffffffffffffffffffffffffffffffffff16815260200190815260200160002060008473ffffffffffffffffffffffffffffffffffffffff1673ffffffffffffffffffffffffffffffffffffffff16815260200190815260200160002060006101000a81548160ff0219169083151502179055508173ffffffffffffffffffffffffffffffffffffffff168373ffffffffffffffffffffffffffffffffffffffff167f17307eab39ab6107e8899845ad3d59bd9653f200f220920489ca2b5937696c31836040516128b791906133c7565b60405180910390a3505050565b6128cf848484611f45565b6128db84848484612c85565b61291a576040517f08c379a000000000000000000000000000000000000000000000000000000000815260040161291190614c7f565b60405180910390fd5b50505050565b606060405180602001604052806000815250905090565b606061294282611da4565b600061294c612920565b9050600081511161296c5760405180602001604052806000815250612997565b8061297684612402565b604051602001612987929190614702565b6040516020818303038152906040525b915050919050565b6000600a60009054906101000a900473ffffffffffffffffffffffffffffffffffffffff16905081600a60006101000a81548173ffffffffffffffffffffffffffffffffffffffff021916908373ffffffffffffffffffffffffffffffffffffffff1602179055508173ffffffffffffffffffffffffffffffffffffffff168173ffffffffffffffffffffffffffffffffffffffff167f8be0079c531659141344cd1fd0a4f28419497f9722a3daafe3b4186f6b6457e060405160405180910390a35050565b60006a636f6e736f6c652e6c6f6790508151602083016000808383865afa5050505050565b60008073ffffffffffffffffffffffffffffffffffffffff16612aac8361271a565b73ffffffffffffffffffffffffffffffffffffffff1614159050919050565b50505050565b50505050565b600080600090507a184f03e93ff9f4daa797ed6e38ed64bf6a1f0100000000000000008310612b35577a184f03e93ff9f4daa797ed6e38ed64bf6a1f0100000000000000008381612b2b57612b2a614a55565b5b0492506040810190505b6d04ee2d6d415b85acef81000000008310612b72576d04ee2d6d415b85acef81000000008381612b6857612b67614a55565b5b0492506020810190505b662386f26fc100008310612ba157662386f26fc100008381612b9757612b96614a55565b5b0492506010810190505b6305f5e1008310612bca576305f5e1008381612bc057612bbf614a55565b5b0492506008810190505b6127108310612bef576127108381612be557612be4614a55565b5b0492506004810190505b60648310612c125760648381612c0857612c07614a55565b5b0492506002810190505b600a8310612c21576001810190505b80915050919050565b612c348383612e0d565b612c416000848484612c85565b612c80576040517f08c379a0000000000000000000000000000000000000000000000000000000008152600401612c7790614c7f565b60405180910390fd5b505050565b6000612ca68473ffffffffffffffffffffffffffffffffffffffff1661302b565b15612e00578373ffffffffffffffffffffffffffffffffffffffff1663150b7a02612ccf611def565b8786866040518563ffffffff1660e01b8152600401612cf19493929190614cf4565b6020604051808303816000875af1925050508015612d2d57506040513d601f19601f82011682018060405250810190612d2a9190614d55565b60015b612db0573d8060008114612d5d576040519150601f19603f3d011682016040523d82523d6000602084013e612d62565b606091505b50600081511415612da8576040517f08c379a0000000000000000000000000000000000000000000000000000000008152600401612d9f90614c7f565b60405180910390fd5b805181602001fd5b63150b7a0260e01b7bffffffffffffffffffffffffffffffffffffffffffffffffffffffff1916817bffffffffffffffffffffffffffffffffffffffffffffffffffffffff191614915050612e05565b600190505b949350505050565b600073ffffffffffffffffffffffffffffffffffffffff168273ffffffffffffffffffffffffffffffffffffffff161415612e7d576040517f08c379a0000000000000000000000000000000000000000000000000000000008152600401612e7490614dce565b60405180910390fd5b612e8681612a8a565b15612ec6576040517f08c379a0000000000000000000000000000000000000000000000000000000008152600401612ebd90614e3a565b60405180910390fd5b612ed4600083836001612acb565b612edd81612a8a565b15612f1d576040517f08c379a0000000000000000000000000000000000000000000000000000000008152600401612f1490614e3a565b60405180910390fd5b6001600360008473ffffffffffffffffffffffffffffffffffffffff1673ffffffffffffffffffffffffffffffffffffffff16815260200190815260200160002060008282540192505081905550816002600083815260200190815260200160002060006101000a81548173ffffffffffffffffffffffffffffffffffffffff021916908373ffffffffffffffffffffffffffffffffffffffff160217905550808273ffffffffffffffffffffffffffffffffffffffff16600073ffffffffffffffffffffffffffffffffffffffff167fddf252ad1be2c89b69c2b068fc378daa952ba7f163c4a11628f55a4df523b3ef60405160405180910390a4613027600083836001612ad1565b5050565b6000808273ffffffffffffffffffffffffffffffffffffffff163b119050919050565b82805461305a90613efd565b90600052602060002090601f01602090048101928261307c57600085556130c3565b82601f1061309557803560ff19168380011785556130c3565b828001600101855582156130c3579182015b828111156130c25782358255916020019190600101906130a7565b5b5090506130d091906131f2565b5090565b8280546130e090613efd565b90600052602060002090601f0160209004810192826131025760008555613149565b82601f1061311b57805160ff1916838001178555613149565b82800160010185558215613149579182015b8281111561314857825182559160200191906001019061312d565b5b50905061315691906131f2565b5090565b8280548282559060005260206000209060020281019282156131e15760005260206000209160020282015b828111156131e057828260008201816000019080546131a390613efd565b6131ae92919061320f565b5060018201816001019080546131c390613efd565b6131ce92919061320f565b50505091600201919060020190613185565b5b5090506131ee919061329c565b5090565b5b8082111561320b5760008160009055506001016131f3565b5090565b82805461321b90613efd565b90600052602060002090601f01602090048101928261323d576000855561328b565b82601f1061324e578054855561328b565b8280016001018555821561328b57600052602060002091601f016020900482015b8281111561328a57825482559160010191906001019061326f565b5b50905061329891906131f2565b5090565b5b808211156132cf57600080820160006132b691906132d3565b6001820160006132c691906132d3565b5060020161329d565b5090565b5080546132df90613efd565b6000825580601f106132f15750613310565b601f01602090049060005260206000209081019061330f91906131f2565b5b50565b6000604051905090565b600080fd5b600080fd5b60007fffffffff0000000000000000000000000000000000000000000000000000000082169050919050565b61335c81613327565b811461336757600080fd5b50565b60008135905061337981613353565b92915050565b6000602082840312156133955761339461331d565b5b60006133a38482850161336a565b91505092915050565b60008115159050919050565b6133c1816133ac565b82525050565b60006020820190506133dc60008301846133b8565b92915050565b600081519050919050565b600082825260208201905092915050565b60005b8381101561341c578082015181840152602081019050613401565b8381111561342b576000848401525b50505050565b6000601f19601f8301169050919050565b600061344d826133e2565b61345781856133ed565b93506134678185602086016133fe565b61347081613431565b840191505092915050565b600060208201905081810360008301526134958184613442565b905092915050565b6000819050919050565b6134b08161349d565b81146134bb57600080fd5b50565b6000813590506134cd816134a7565b92915050565b6000602082840312156134e9576134e861331d565b5b60006134f7848285016134be565b91505092915050565b600073ffffffffffffffffffffffffffffffffffffffff82169050919050565b600061352b82613500565b9050919050565b61353b81613520565b82525050565b60006020820190506135566000830184613532565b92915050565b61356581613520565b811461357057600080fd5b50565b6000813590506135828161355c565b92915050565b6000806040838503121561359f5761359e61331d565b5b60006135ad85828601613573565b92505060206135be858286016134be565b9150509250929050565b6000806000606084860312156135e1576135e061331d565b5b60006135ef86828701613573565b935050602061360086828701613573565b9250506040613611868287016134be565b9150509250925092565b600080fd5b600080fd5b7f4e487b7100000000000000000000000000000000000000000000000000000000600052604160045260246000fd5b61365d82613431565b810181811067ffffffffffffffff8211171561367c5761367b613625565b5b80604052505050565b600061368f613313565b905061369b8282613654565b919050565b600067ffffffffffffffff8211156136bb576136ba613625565b5b6136c482613431565b9050602081019050919050565b82818337600083830152505050565b60006136f36136ee846136a0565b613685565b90508281526020810184848401111561370f5761370e613620565b5b61371a8482856136d1565b509392505050565b600082601f8301126137375761373661361b565b5b81356137478482602086016136e0565b91505092915050565b6000602082840312156137665761376561331d565b5b600082013567ffffffffffffffff81111561378457613783613322565b5b61379084828501613722565b91505092915050565b6000602082840312156137af576137ae61331d565b5b60006137bd84828501613573565b91505092915050565b600080fd5b600080fd5b60008083601f8401126137e6576137e561361b565b5b8235905067ffffffffffffffff811115613803576138026137c6565b5b60208301915083600182028301111561381f5761381e6137cb565b5b9250929050565b6000806000806000606086880312156138425761384161331d565b5b600086013567ffffffffffffffff8111156138605761385f613322565b5b61386c888289016137d0565b9550955050602086013567ffffffffffffffff81111561388f5761388e613322565b5b61389b888289016137d0565b935093505060406138ae88828901613573565b9150509295509295909350565b6138c48161349d565b82525050565b60006020820190506138df60008301846138bb565b92915050565b600081519050919050565b600082825260208201905092915050565b6000819050602082019050919050565b600082825260208201905092915050565b600061392d826133e2565b6139378185613911565b93506139478185602086016133fe565b61395081613431565b840191505092915050565b600060408301600083015184820360008601526139788282613922565b915050602083015184820360208601526139928282613922565b9150508091505092915050565b60006139ab838361395b565b905092915050565b6000602082019050919050565b60006139cb826138e5565b6139d581856138f0565b9350836020820285016139e785613901565b8060005b85811015613a235784840389528151613a04858261399f565b9450613a0f836139b3565b925060208a019950506001810190506139eb565b50829750879550505050505092915050565b60006020820190508181036000830152613a4f81846139c0565b905092915050565b6000613a6282613500565b9050919050565b613a7281613a57565b82525050565b6000602082019050613a8d6000830184613a69565b92915050565b60008060208385031215613aaa57613aa961331d565b5b600083013567ffffffffffffffff811115613ac857613ac7613322565b5b613ad4858286016137d0565b92509250509250929050565b613ae9816133ac565b8114613af457600080fd5b50565b600081359050613b0681613ae0565b92915050565b60008060408385031215613b2357613b2261331d565b5b6000613b3185828601613573565b9250506020613b4285828601613af7565b9150509250929050565b60008060408385031215613b6357613b6261331d565b5b600083013567ffffffffffffffff811115613b8157613b80613322565b5b613b8d85828601613722565b9250506020613b9e858286016134be565b9150509250929050565b60006040820190508181036000830152613bc28185613442565b90508181036020830152613bd68184613442565b90509392505050565b600067ffffffffffffffff821115613bfa57613bf9613625565b5b613c0382613431565b9050602081019050919050565b6000613c23613c1e84613bdf565b613685565b905082815260208101848484011115613c3f57613c3e613620565b5b613c4a8482856136d1565b509392505050565b600082601f830112613c6757613c6661361b565b5b8135613c77848260208601613c10565b91505092915050565b60008060008060808587031215613c9a57613c9961331d565b5b6000613ca887828801613573565b9450506020613cb987828801613573565b9350506040613cca878288016134be565b925050606085013567ffffffffffffffff811115613ceb57613cea613322565b5b613cf787828801613c52565b91505092959194509250565b600080600060608486031215613d1c57613d1b61331d565b5b600084013567ffffffffffffffff811115613d3a57613d39613322565b5b613d4686828701613722565b935050602084013567ffffffffffffffff811115613d6757613d66613322565b5b613d7386828701613722565b925050604084013567ffffffffffffffff811115613d9457613d93613322565b5b613da086828701613722565b9150509250925092565b60008060408385031215613dc157613dc061331d565b5b6000613dcf85828601613573565b9250506020613de085828601613573565b9150509250929050565b600081519050919050565b600082825260208201905092915050565b6000819050602082019050919050565b6000613e228383613922565b905092915050565b6000602082019050919050565b6000613e4282613dea565b613e4c8185613df5565b935083602082028501613e5e85613e06565b8060005b85811015613e9a5784840389528151613e7b8582613e16565b9450613e8683613e2a565b925060208a01995050600181019050613e62565b50829750879550505050505092915050565b60006020820190508181036000830152613ec68184613e37565b905092915050565b7f4e487b7100000000000000000000000000000000000000000000000000000000600052602260045260246000fd5b60006002820490506001821680613f1557607f821691505b60208210811415613f2957613f28613ece565b5b50919050565b7f4552433732313a20617070726f76616c20746f2063757272656e74206f776e6560008201527f7200000000000000000000000000000000000000000000000000000000000000602082015250565b6000613f8b6021836133ed565b9150613f9682613f2f565b604082019050919050565b60006020820190508181036000830152613fba81613f7e565b9050919050565b7f4552433732313a20617070726f76652063616c6c6572206973206e6f7420746f60008201527f6b656e206f776e6572206f7220617070726f76656420666f7220616c6c000000602082015250565b600061401d603d836133ed565b915061402882613fc1565b604082019050919050565b6000602082019050818103600083015261404c81614010565b9050919050565b7f4552433732313a2063616c6c6572206973206e6f7420746f6b656e206f776e6560008201527f72206f7220617070726f76656400000000000000000000000000000000000000602082015250565b60006140af602d836133ed565b91506140ba82614053565b604082019050919050565b600060208201905081810360008301526140de816140a2565b9050919050565b7f696e76616c696420646f6d61696e206e616d6520636865636b206c656e677468600082015250565b600061411b6020836133ed565b9150614126826140e5565b602082019050919050565b6000602082019050818103600083015261414a8161410e565b9050919050565b7f54686973206164647265737320697320616c726561647920726567697374657260008201527f6564212100000000000000000000000000000000000000000000000000000000602082015250565b60006141ad6024836133ed565b91506141b882614151565b604082019050919050565b600060208201905081810360008301526141dc816141a0565b9050919050565b600081905092915050565b60006141fa83856141e3565b93506142078385846136d1565b82840190509392505050565b60006142208284866141ee565b91508190509392505050565b60008190508160005260206000209050919050565b6000815461424e81613efd565b61425881866141e3565b945060018216600081146142735760018114614284576142b7565b60ff198316865281860193506142b7565b61428d8561422c565b60005b838110156142af57815481890152600182019150602081019050614290565b838801955050505b50505092915050565b60006142cb826133e2565b6142d581856141e3565b93506142e58185602086016133fe565b80840191505092915050565b60006142fd8286614241565b915061430982856142c0565b91506143158284614241565b9150819050949350505050565b7f7b226e616d65223a202200000000000000000000000000000000000000000000600082015250565b6000614358600a836141e3565b915061436382614322565b600a82019050919050565b7f222c20226465736372697074696f6e223a20224120646f6d61696e206f6e207460008201527f6865204e696e6a61206e616d652073657276696365222c2022696d616765223a60208201527f2022646174613a696d6167652f7376672b786d6c3b6261736536342c00000000604082015250565b60006143f0605c836141e3565b91506143fb8261436e565b605c82019050919050565b7f222c226c656e677468223a220000000000000000000000000000000000000000600082015250565b600061443c600c836141e3565b915061444782614406565b600c82019050919050565b7f227d000000000000000000000000000000000000000000000000000000000000600082015250565b60006144886002836141e3565b915061449382614452565b600282019050919050565b60006144a98261434b565b91506144b582866142c0565b91506144c0826143e3565b91506144cc82856142c0565b91506144d78261442f565b91506144e382846142c0565b91506144ee8261447b565b9150819050949350505050565b7f646174613a6170706c69636174696f6e2f6a736f6e3b6261736536342c000000600082015250565b6000614531601d836141e3565b915061453c826144fb565b601d82019050919050565b600061455282614524565b915061455e82846142c0565b915081905092915050565b600061457583856133ed565b93506145828385846136d1565b61458b83613431565b840190509392505050565b60006080820190506145ab6000830189613532565b81810360208301526145be818789614569565b905081810360408301526145d3818587614569565b90506145e260608301846133b8565b979650505050505050565b7f4552433732313a20696e76616c696420746f6b656e2049440000000000000000600082015250565b60006146236018836133ed565b915061462e826145ed565b602082019050919050565b6000602082019050818103600083015261465281614616565b9050919050565b7f4552433732313a2061646472657373207a65726f206973206e6f74206120766160008201527f6c6964206f776e65720000000000000000000000000000000000000000000000602082015250565b60006146b56029836133ed565b91506146c082614659565b604082019050919050565b600060208201905081810360008301526146e4816146a8565b9050919050565b60006146f782846142c0565b915081905092915050565b600061470e82856142c0565b915061471a82846142c0565b91508190509392505050565b600060608201905081810360008301526147408186613442565b905081810360208301526147548185613442565b905081810360408301526147688184613442565b9050949350505050565b7f4f776e61626c653a206e6577206f776e657220697320746865207a65726f206160008201527f6464726573730000000000000000000000000000000000000000000000000000602082015250565b60006147ce6026836133ed565b91506147d982614772565b604082019050919050565b600060208201905081810360008301526147fd816147c1565b9050919050565b7f4e487b7100000000000000000000000000000000000000000000000000000000600052603260045260246000fd5b7f4e487b7100000000000000000000000000000000000000000000000000000000600052601160045260246000fd5b600061486d8261349d565b91507fffffffffffffffffffffffffffffffffffffffffffffffffffffffffffffffff8214156148a05761489f614833565b5b600182019050919050565b600060408201905081810360008301526148c58185613442565b90506148d46020830184613532565b9392505050565b7f4552433732313a207472616e736665722066726f6d20696e636f72726563742060008201527f6f776e6572000000000000000000000000000000000000000000000000000000602082015250565b60006149376025836133ed565b9150614942826148db565b604082019050919050565b600060208201905081810360008301526149668161492a565b9050919050565b7f4552433732313a207472616e7366657220746f20746865207a65726f2061646460008201527f7265737300000000000000000000000000000000000000000000000000000000602082015250565b60006149c96024836133ed565b91506149d48261496d565b604082019050919050565b600060208201905081810360008301526149f8816149bc565b9050919050565b6000614a0a8261349d565b9150614a158361349d565b9250827fffffffffffffffffffffffffffffffffffffffffffffffffffffffffffffffff03821115614a4a57614a49614833565b5b828201905092915050565b7f4e487b7100000000000000000000000000000000000000000000000000000000600052601260045260246000fd5b6000614a8f8261349d565b9150614a9a8361349d565b925082614aaa57614aa9614a55565b5b828204905092915050565b6000614ac08261349d565b9150614acb8361349d565b9250817fffffffffffffffffffffffffffffffffffffffffffffffffffffffffffffffff0483118215151615614b0457614b03614833565b5b828202905092915050565b7f45524337323155524953746f726167653a2055524920736574206f66206e6f6e60008201527f6578697374656e7420746f6b656e000000000000000000000000000000000000602082015250565b6000614b6b602e836133ed565b9150614b7682614b0f565b604082019050919050565b60006020820190508181036000830152614b9a81614b5e565b9050919050565b7f4552433732313a20617070726f766520746f2063616c6c657200000000000000600082015250565b6000614bd76019836133ed565b9150614be282614ba1565b602082019050919050565b60006020820190508181036000830152614c0681614bca565b9050919050565b7f4552433732313a207472616e7366657220746f206e6f6e20455243373231526560008201527f63656976657220696d706c656d656e7465720000000000000000000000000000602082015250565b6000614c696032836133ed565b9150614c7482614c0d565b604082019050919050565b60006020820190508181036000830152614c9881614c5c565b9050919050565b600081519050919050565b600082825260208201905092915050565b6000614cc682614c9f565b614cd08185614caa565b9350614ce08185602086016133fe565b614ce981613431565b840191505092915050565b6000608082019050614d096000830187613532565b614d166020830186613532565b614d2360408301856138bb565b8181036060830152614d358184614cbb565b905095945050505050565b600081519050614d4f81613353565b92915050565b600060208284031215614d6b57614d6a61331d565b5b6000614d7984828501614d40565b91505092915050565b7f4552433732313a206d696e7420746f20746865207a65726f2061646472657373600082015250565b6000614db86020836133ed565b9150614dc382614d82565b602082019050919050565b60006020820190508181036000830152614de781614dab565b9050919050565b7f4552433732313a20746f6b656e20616c7265616479206d696e74656400000000600082015250565b6000614e24601c836133ed565b9150614e2f82614dee565b602082019050919050565b60006020820190508181036000830152614e5381614e17565b905091905056fe4142434445464748494a4b4c4d4e4f505152535455565758595a6162636465666768696a6b6c6d6e6f707172737475767778797a303132333435363738392b2fa2646970667358221220778e0e40dc7577152dfdf15094cf616dd2ce67a945cd77823bc87e4b4416316864736f6c634300080a00333c73766720786d6c6e733d22687474703a2f2f7777772e77332e6f72672f323030302f737667222077696474683d2232373022206865696768743d22323730222066696c6c3d226e6f6e65223e3c706174682066696c6c3d2275726c282342292220643d224d302030683237307632373048307a222f3e3c646566733e3c66696c7465722069643d22412220636f6c6f722d696e746572706f6c6174696f6e2d66696c746572733d2273524742222066696c746572556e6974733d227573657253706163654f6e55736522206865696768743d22323730222077696474683d22323730223e3c666544726f70536861646f772064783d2230222064793d22312220737464446576696174696f6e3d22322220666c6f6f642d6f7061636974793d222e323235222077696474683d223230302522206865696768743d2232303025222f3e3c2f66696c7465723e3c2f646566733e3c7061746820643d224d37322e3836332034322e393439632d2e3636382d2e3338372d312e3432362d2e35392d322e3139372d2e3539732d312e3532392e3230342d322e3139372e35396c2d31302e30383120362e3033322d362e383520332e3933342d31302e30383120362e303332632d2e3636382e3338372d312e3432362e35392d322e3139372e3539732d312e3532392d2e3230342d322e3139372d2e35396c2d382e3031332d342e37323161342e353220342e35322030203020312d312e3538392d312e363136632d2e3338342d2e3636352d2e3539342d312e3431382d2e3630382d322e313837762d392e3331632d2e3031332d2e3737352e3138352d312e3533382e3537322d322e32303861342e323520342e323520302030203120312e3632352d312e3539356c372e3838342d342e3539632e3636382d2e33383720312e3432362d2e353920322e3139372d2e353973312e3532392e32303420322e3139372e35396c372e38383420342e353961342e353220342e353220302030203120312e35383920312e363136632e3338342e3636352e35393420312e3431382e36303820322e31383776362e3033326c362e38352d342e303635762d362e303332632e3031332d2e3737352d2e3138352d312e3533382d2e3537322d322e32303861342e323520342e32352030203020302d312e3632352d312e3539354c34312e3435362032342e3539632d2e3636382d2e3338372d312e3432362d2e35392d322e3139372d2e3539732d312e3532392e3230342d322e3139372e35396c2d31342e38363420382e36353561342e323520342e32352030203020302d312e36323520312e353935632d2e3338372e36372d2e35383520312e3433342d2e35373220322e3230387631372e343431632d2e3031332e3737352e31383520312e3533382e35373220322e32303861342e323520342e323520302030203020312e36323520312e3539356c31342e38363420382e363535632e3636382e33383720312e3432362e353920322e3139372e353973312e3532392d2e32303420322e3139372d2e35396c31302e3038312d352e39303120362e38352d342e3036352031302e3038312d352e393031632e3636382d2e33383720312e3432362d2e353920322e3139372d2e353973312e3532392e32303420322e3139372e35396c372e38383420342e353961342e353220342e353220302030203120312e35383920312e363136632e3338342e3636352e35393420312e3431382e36303820322e31383776392e333131632e3031332e3737352d2e31383520312e3533382d2e35373220322e32303861342e323520342e32352030203020312d312e36323520312e3539356c2d372e38383420342e373231632d2e3636382e3338372d312e3432362e35392d322e3139372e3539732d312e3532392d2e3230342d322e3139372d2e35396c2d372e3838342d342e353961342e353220342e35322030203020312d312e3538392d312e363136632d2e3338352d2e3636352d2e3539342d312e3431382d2e3630382d322e313837762d362e3033326c2d362e383520342e30363576362e303332632d2e3031332e3737352e31383520312e3533382e35373220322e32303861342e323520342e323520302030203020312e36323520312e3539356c31342e38363420382e363535632e3636382e33383720312e3432362e353920322e3139372e353973312e3532392d2e32303420322e3139372d2e35396c31342e3836342d382e363535632e3635372d2e33393420312e3230342d2e393520312e3538392d312e363136732e3539342d312e3431382e3630392d322e3138375635352e353338632e3031332d2e3737352d2e3138352d312e3533382d2e3537322d322e32303861342e323520342e32352030203020302d312e3632352d312e3539356c2d31342e3939332d382e3738367a222066696c6c3d2223666666222f3e3c646566733e3c6c696e6561724772616469656e742069643d2242222078313d2230222079313d2230222078323d22323730222079323d2232373022206772616469656e74556e6974733d227573657253706163654f6e557365223e3c73746f702073746f702d636f6c6f723d2223636235656565222f3e3c73746f70206f66667365743d2231222073746f702d636f6c6f723d2223306364376534222073746f702d6f7061636974793d222e3939222f3e3c2f6c696e6561724772616469656e743e3c2f646566733e3c7465787420783d2233322e352220793d223233312220666f6e742d73697a653d223237222066696c6c3d2223666666222066696c7465723d2275726c282341292220666f6e742d66616d696c793d22506c7573204a616b617274612053616e732c44656a6156752053616e732c4e6f746f20436f6c6f7220456d6f6a692c4170706c6520436f6c6f7220456d6f6a692c73616e732d73657269662220666f6e742d7765696768743d22626f6c64223e",
  "immutableReferences": {},
  "source": "//SPDX-License-Identifier: Unlicense\npragma solidity >=0.8.0;\n\nimport {StringUtils} from \"./../lib/StringUtils.sol\";\nimport {Base64} from \"./../lib/Base64.sol\";\nimport \"@openzeppelin/contracts/token/ERC721/extensions/ERC721URIStorage.sol\";\nimport \"@openzeppelin/contracts/utils/Counters.sol\";\nimport \"truffle/console.sol\";\nimport \"./../interface/IDNS.sol\";\n\n/**\n * DNS(DID Name Servivce) Contract\n */\ncontract DNS is ERC721URIStorage, IDNS {\n    // tokenID\n    using Counters for Counters.Counter;\n    Counters.Counter private _tokenIds;\n\n    // Image data\n    string svgPartOne =\n        '<svg xmlns=\"http://www.w3.org/2000/svg\" width=\"270\" height=\"270\" fill=\"none\"><path fill=\"url(#B)\" d=\"M0 0h270v270H0z\"/><defs><filter id=\"A\" color-interpolation-filters=\"sRGB\" filterUnits=\"userSpaceOnUse\" height=\"270\" width=\"270\"><feDropShadow dx=\"0\" dy=\"1\" stdDeviation=\"2\" flood-opacity=\".225\" width=\"200%\" height=\"200%\"/></filter></defs><path d=\"M72.863 42.949c-.668-.387-1.426-.59-2.197-.59s-1.529.204-2.197.59l-10.081 6.032-6.85 3.934-10.081 6.032c-.668.387-1.426.59-2.197.59s-1.529-.204-2.197-.59l-8.013-4.721a4.52 4.52 0 0 1-1.589-1.616c-.384-.665-.594-1.418-.608-2.187v-9.31c-.013-.775.185-1.538.572-2.208a4.25 4.25 0 0 1 1.625-1.595l7.884-4.59c.668-.387 1.426-.59 2.197-.59s1.529.204 2.197.59l7.884 4.59a4.52 4.52 0 0 1 1.589 1.616c.384.665.594 1.418.608 2.187v6.032l6.85-4.065v-6.032c.013-.775-.185-1.538-.572-2.208a4.25 4.25 0 0 0-1.625-1.595L41.456 24.59c-.668-.387-1.426-.59-2.197-.59s-1.529.204-2.197.59l-14.864 8.655a4.25 4.25 0 0 0-1.625 1.595c-.387.67-.585 1.434-.572 2.208v17.441c-.013.775.185 1.538.572 2.208a4.25 4.25 0 0 0 1.625 1.595l14.864 8.655c.668.387 1.426.59 2.197.59s1.529-.204 2.197-.59l10.081-5.901 6.85-4.065 10.081-5.901c.668-.387 1.426-.59 2.197-.59s1.529.204 2.197.59l7.884 4.59a4.52 4.52 0 0 1 1.589 1.616c.384.665.594 1.418.608 2.187v9.311c.013.775-.185 1.538-.572 2.208a4.25 4.25 0 0 1-1.625 1.595l-7.884 4.721c-.668.387-1.426.59-2.197.59s-1.529-.204-2.197-.59l-7.884-4.59a4.52 4.52 0 0 1-1.589-1.616c-.385-.665-.594-1.418-.608-2.187v-6.032l-6.85 4.065v6.032c-.013.775.185 1.538.572 2.208a4.25 4.25 0 0 0 1.625 1.595l14.864 8.655c.668.387 1.426.59 2.197.59s1.529-.204 2.197-.59l14.864-8.655c.657-.394 1.204-.95 1.589-1.616s.594-1.418.609-2.187V55.538c.013-.775-.185-1.538-.572-2.208a4.25 4.25 0 0 0-1.625-1.595l-14.993-8.786z\" fill=\"#fff\"/><defs><linearGradient id=\"B\" x1=\"0\" y1=\"0\" x2=\"270\" y2=\"270\" gradientUnits=\"userSpaceOnUse\"><stop stop-color=\"#cb5eee\"/><stop offset=\"1\" stop-color=\"#0cd7e4\" stop-opacity=\".99\"/></linearGradient></defs><text x=\"32.5\" y=\"231\" font-size=\"27\" fill=\"#fff\" filter=\"url(#A)\" font-family=\"Plus Jakarta Sans,DejaVu Sans,Noto Color Emoji,Apple Color Emoji,sans-serif\" font-weight=\"bold\">';\n    string svgPartTwo = \"</text></svg>\";\n\n    // owner address\n    address payable public owner;\n\n    // mapping\n    mapping(string => string) public domains;\n    mapping(string => string) public records;\n    mapping(uint => string) public names;\n    mapping(address => bool) public isRegistered;\n    mapping(address => string) public dids;\n    mapping(string => address) public addrs;\n    mapping(string => VcInfo[]) public vcs;\n\n    // event\n    event DNSCreated(string name, string symbol, address owner);\n    event Registered(address to, string did, string name, bool isRegistered);\n    event UpdateVc(string did, string name, string cid);\n    event OwnershipTransferred(\n        address indexed previousOwner,\n        address indexed newOwner\n    );\n\n    modifier onlyOwner() {\n        require(isOwner());\n        _;\n    }\n\n    /**\n     * constuctor\n     */\n    constructor() payable ERC721(\"DID Name Service\", \"DNS\") {\n        // owner address\n        owner = payable(msg.sender);\n\n        console.log(\"owner:\", owner);\n        emit DNSCreated(\"DID Name Service\", \"DNS\", owner);\n    }\n\n    /**\n     * register\n     * @param name domain\n     * @param did did\n     * @param to address\n     */\n    function register(\n        string calldata name,\n        string calldata did,\n        address to\n    ) public {\n        // check\n        require(valid(name), \"invalid domain name check length\");\n        require(!isRegistered[to], \"This address is already registered!!\");\n\n        // name\n        string memory _name = string(abi.encodePacked(name));\n        // create image data\n        string memory finalSvg = string(\n            abi.encodePacked(svgPartOne, _name, svgPartTwo)\n        );\n        //get token ID\n        uint256 newRecordId = _tokenIds.current();\n        uint256 length = StringUtils.strlen(name);\n        string memory strLen = Strings.toString(length);\n\n        // encode\n        string memory json = Base64.encode(\n            abi.encodePacked(\n                '{\"name\": \"',\n                _name,\n                '\", \"description\": \"A domain on the Ninja name service\", \"image\": \"data:image/svg+xml;base64,',\n                Base64.encode(bytes(finalSvg)),\n                '\",\"length\":\"',\n                strLen,\n                '\"}'\n            )\n        );\n        // generate URI\n        string memory finalTokenUri = string(\n            abi.encodePacked(\"data:application/json;base64,\", json)\n        );\n\n        // register\n        domains[name] = did;\n        records[did] = name;\n        names[newRecordId] = name;\n        dids[to] = did;\n        addrs[did] = to;\n        isRegistered[to] = true;\n\n        // mint NFT\n        _safeMint(to, newRecordId);\n        // token URO\n        _setTokenURI(newRecordId, finalTokenUri);\n\n        _tokenIds.increment();\n        emit Registered(to, did, name, isRegistered[to]);\n    }\n\n    /**\n     * get did method\n     * @param name name\n     * @return did did\n     */\n    function getDidInfo(\n        string calldata name\n    ) public view returns (string memory) {\n        return domains[name];\n    }\n\n    /**\n     * check owner\n     */\n    function isOwner() public view returns (bool) {\n        return msg.sender == owner;\n    }\n\n    /**\n     * gell all names\n     */\n    function getAllNames() public view returns (string[] memory) {\n        string[] memory allNames = new string[](_tokenIds.current());\n        for (uint i = 0; i < _tokenIds.current(); i++) {\n            allNames[i] = names[i];\n        }\n        // \n        return allNames;\n    }\n\n    /**\n     * check domain name\n     */\n    function valid(string calldata name) public pure returns (bool) {\n        return StringUtils.strlen(name) >= 3 && StringUtils.strlen(name) <= 30;\n    }\n\n    /**\n     * getVcs function\n     * @param _did DID\n     * @return vcs[_did] Verifiable Credentials\n     */\n    function getVcs(string memory _did) public view returns (VcInfo[] memory) {\n        return vcs[_did];\n    }\n\n    /**\n     * updatVc function\n     * @param _did DID\n     * @param _name VC Name\n     * @param _cid VC's CID\n     */\n    function updateVc(\n        string memory _did,\n        string memory _name,\n        string memory _cid\n    ) public {\n        // get Vcinfo\n        VcInfo[] storage coll = vcs[_did];\n\n        // puch new Vc info\n        coll.push(VcInfo({name: _name, cid: _cid}));\n        // register again\n        vcs[_did] = coll;\n\n        emit UpdateVc(_did, _name, _cid);\n    }\n\n    /**\n     * @dev Transfers ownership of the contract to a new account (`newOwner`).\n     * Can only be called by the current owner.\n     */\n    function transferOwnership(address newOwner) public virtual onlyOwner {\n        require(\n            newOwner != address(0),\n            \"Ownable: new owner is the zero address\"\n        );\n        _transferOwnership(newOwner);\n    }\n\n    /**\n     * @dev Transfers ownership of the contract to a new account (`newOwner`).\n     * Internal function without access restriction.\n     */\n    function _transferOwnership(address newOwner) internal virtual {\n        address oldOwner = owner;\n        owner = payable(newOwner);\n        emit OwnershipTransferred(oldOwner, newOwner);\n    }\n}\n",
  "sourcePath": "/Users/harukikondo/git/Web3PortfolioWallet/packages/backend/contracts/DNS/DNS.sol",
  "compiler": {
    "name": "solc",
    "version": "0.8.10+commit.fc410830.Emscripten.clang"
  },
  "schemaVersion": "3.4.13",
  "updatedAt": "2023-04-14T14:10:13.318Z",
  "networkType": "ethereum",
  "devdoc": {
    "kind": "dev",
    "methods": {
      "approve(address,uint256)": {
        "details": "See {IERC721-approve}."
      },
      "balanceOf(address)": {
        "details": "See {IERC721-balanceOf}."
      },
      "getApproved(uint256)": {
        "details": "See {IERC721-getApproved}."
      },
      "getDidInfo(string)": {
        "params": {
          "name": "name"
        },
        "returns": {
          "_0": "did did"
        }
      },
      "getVcs(string)": {
        "params": {
          "_did": "DID"
        },
        "returns": {
          "_0": "vcs[_did] Verifiable Credentials"
        }
      },
      "isApprovedForAll(address,address)": {
        "details": "See {IERC721-isApprovedForAll}."
      },
      "name()": {
        "details": "See {IERC721Metadata-name}."
      },
      "ownerOf(uint256)": {
        "details": "See {IERC721-ownerOf}."
      },
      "register(string,string,address)": {
        "params": {
          "did": "did",
          "name": "domain",
          "to": "address"
        }
      },
      "safeTransferFrom(address,address,uint256)": {
        "details": "See {IERC721-safeTransferFrom}."
      },
      "safeTransferFrom(address,address,uint256,bytes)": {
        "details": "See {IERC721-safeTransferFrom}."
      },
      "setApprovalForAll(address,bool)": {
        "details": "See {IERC721-setApprovalForAll}."
      },
      "supportsInterface(bytes4)": {
        "details": "See {IERC165-supportsInterface}."
      },
      "symbol()": {
        "details": "See {IERC721Metadata-symbol}."
      },
      "tokenURI(uint256)": {
        "details": "See {IERC721Metadata-tokenURI}."
      },
      "transferFrom(address,address,uint256)": {
        "details": "See {IERC721-transferFrom}."
      },
      "transferOwnership(address)": {
        "details": "Transfers ownership of the contract to a new account (`newOwner`). Can only be called by the current owner."
      },
      "updateVc(string,string,string)": {
        "params": {
          "_cid": "VC's CID",
          "_did": "DID",
          "_name": "VC Name"
        }
      }
    },
    "version": 1
  },
  "userdoc": {
    "kind": "user",
    "methods": {
      "constructor": {
        "notice": "constuctor"
      },
      "getAllNames()": {
        "notice": "gell all names"
      },
      "getDidInfo(string)": {
        "notice": "get did method"
      },
      "getVcs(string)": {
        "notice": "getVcs function"
      },
      "isOwner()": {
        "notice": "check owner"
      },
      "register(string,string,address)": {
        "notice": "register"
      },
      "updateVc(string,string,string)": {
        "notice": "updatVc function"
      },
      "valid(string)": {
        "notice": "check domain name"
      }
    },
    "notice": "DNS(DID Name Servivce) Contract",
    "version": 1
  }
}