{
  "contractName": "MyToken",
  "abi": [
    {
      "inputs": [
        {
          "internalType": "string",
          "name": "_name",
          "type": "string"
        },
        {
          "internalType": "string",
          "name": "_symbol",
          "type": "string"
        }
      ],
      "stateMutability": "nonpayable",
      "type": "constructor"
    },
    {
      "anonymous": false,
      "inputs": [
        {
          "indexed": true,
          "internalType": "address",
          "name": "owner",
          "type": "address"
        },
        {
          "indexed": true,
          "internalType": "address",
          "name": "spender",
          "type": "address"
        },
        {
          "indexed": false,
          "internalType": "uint256",
          "name": "value",
          "type": "uint256"
        }
      ],
      "name": "Approval",
      "type": "event"
    },
    {
      "anonymous": false,
      "inputs": [
        {
          "indexed": true,
          "internalType": "address",
          "name": "delegator",
          "type": "address"
        },
        {
          "indexed": true,
          "internalType": "address",
          "name": "fromDelegate",
          "type": "address"
        },
        {
          "indexed": true,
          "internalType": "address",
          "name": "toDelegate",
          "type": "address"
        }
      ],
      "name": "DelegateChanged",
      "type": "event"
    },
    {
      "anonymous": false,
      "inputs": [
        {
          "indexed": true,
          "internalType": "address",
          "name": "delegate",
          "type": "address"
        },
        {
          "indexed": false,
          "internalType": "uint256",
          "name": "previousBalance",
          "type": "uint256"
        },
        {
          "indexed": false,
          "internalType": "uint256",
          "name": "newBalance",
          "type": "uint256"
        }
      ],
      "name": "DelegateVotesChanged",
      "type": "event"
    },
    {
      "anonymous": false,
      "inputs": [
        {
          "indexed": true,
          "internalType": "address",
          "name": "previousOwner",
          "type": "address"
        },
        {
          "indexed": true,
          "internalType": "address",
          "name": "newOwner",
          "type": "address"
        }
      ],
      "name": "OwnershipTransferred",
      "type": "event"
    },
    {
      "anonymous": false,
      "inputs": [
        {
          "indexed": false,
          "internalType": "address",
          "name": "account",
          "type": "address"
        }
      ],
      "name": "Paused",
      "type": "event"
    },
    {
      "anonymous": false,
      "inputs": [
        {
          "indexed": false,
          "internalType": "string",
          "name": "name",
          "type": "string"
        },
        {
          "indexed": false,
          "internalType": "string",
          "name": "symbol",
          "type": "string"
        }
      ],
      "name": "TokenCreated",
      "type": "event"
    },
    {
      "anonymous": false,
      "inputs": [
        {
          "indexed": true,
          "internalType": "address",
          "name": "from",
          "type": "address"
        },
        {
          "indexed": true,
          "internalType": "address",
          "name": "to",
          "type": "address"
        },
        {
          "indexed": false,
          "internalType": "uint256",
          "name": "value",
          "type": "uint256"
        }
      ],
      "name": "Transfer",
      "type": "event"
    },
    {
      "anonymous": false,
      "inputs": [
        {
          "indexed": false,
          "internalType": "address",
          "name": "account",
          "type": "address"
        }
      ],
      "name": "Unpaused",
      "type": "event"
    },
    {
      "anonymous": false,
      "inputs": [
        {
          "indexed": false,
          "internalType": "address",
          "name": "to",
          "type": "address"
        },
        {
          "indexed": false,
          "internalType": "uint256",
          "name": "score",
          "type": "uint256"
        }
      ],
      "name": "UpdateScore",
      "type": "event"
    },
    {
      "anonymous": false,
      "inputs": [
        {
          "indexed": false,
          "internalType": "address",
          "name": "to",
          "type": "address"
        },
        {
          "indexed": false,
          "internalType": "uint256",
          "name": "amount",
          "type": "uint256"
        },
        {
          "indexed": false,
          "internalType": "uint256",
          "name": "balanceOf",
          "type": "uint256"
        }
      ],
      "name": "balanceChanged",
      "type": "event"
    },
    {
      "inputs": [],
      "name": "DOMAIN_SEPARATOR",
      "outputs": [
        {
          "internalType": "bytes32",
          "name": "",
          "type": "bytes32"
        }
      ],
      "stateMutability": "view",
      "type": "function",
      "constant": true
    },
    {
      "inputs": [
        {
          "internalType": "address",
          "name": "owner",
          "type": "address"
        },
        {
          "internalType": "address",
          "name": "spender",
          "type": "address"
        }
      ],
      "name": "allowance",
      "outputs": [
        {
          "internalType": "uint256",
          "name": "",
          "type": "uint256"
        }
      ],
      "stateMutability": "view",
      "type": "function",
      "constant": true
    },
    {
      "inputs": [
        {
          "internalType": "address",
          "name": "spender",
          "type": "address"
        },
        {
          "internalType": "uint256",
          "name": "amount",
          "type": "uint256"
        }
      ],
      "name": "approve",
      "outputs": [
        {
          "internalType": "bool",
          "name": "",
          "type": "bool"
        }
      ],
      "stateMutability": "nonpayable",
      "type": "function"
    },
    {
      "inputs": [
        {
          "internalType": "address",
          "name": "account",
          "type": "address"
        }
      ],
      "name": "balanceOf",
      "outputs": [
        {
          "internalType": "uint256",
          "name": "",
          "type": "uint256"
        }
      ],
      "stateMutability": "view",
      "type": "function",
      "constant": true
    },
    {
      "inputs": [
        {
          "internalType": "uint256",
          "name": "amount",
          "type": "uint256"
        }
      ],
      "name": "burn",
      "outputs": [],
      "stateMutability": "nonpayable",
      "type": "function"
    },
    {
      "inputs": [
        {
          "internalType": "address",
          "name": "account",
          "type": "address"
        },
        {
          "internalType": "uint256",
          "name": "amount",
          "type": "uint256"
        }
      ],
      "name": "burnFrom",
      "outputs": [],
      "stateMutability": "nonpayable",
      "type": "function"
    },
    {
      "inputs": [
        {
          "internalType": "address",
          "name": "account",
          "type": "address"
        },
        {
          "internalType": "uint32",
          "name": "pos",
          "type": "uint32"
        }
      ],
      "name": "checkpoints",
      "outputs": [
        {
          "components": [
            {
              "internalType": "uint32",
              "name": "fromBlock",
              "type": "uint32"
            },
            {
              "internalType": "uint224",
              "name": "votes",
              "type": "uint224"
            }
          ],
          "internalType": "struct ERC20Votes.Checkpoint",
          "name": "",
          "type": "tuple"
        }
      ],
      "stateMutability": "view",
      "type": "function",
      "constant": true
    },
    {
      "inputs": [],
      "name": "decimals",
      "outputs": [
        {
          "internalType": "uint8",
          "name": "",
          "type": "uint8"
        }
      ],
      "stateMutability": "view",
      "type": "function",
      "constant": true
    },
    {
      "inputs": [
        {
          "internalType": "address",
          "name": "spender",
          "type": "address"
        },
        {
          "internalType": "uint256",
          "name": "subtractedValue",
          "type": "uint256"
        }
      ],
      "name": "decreaseAllowance",
      "outputs": [
        {
          "internalType": "bool",
          "name": "",
          "type": "bool"
        }
      ],
      "stateMutability": "nonpayable",
      "type": "function"
    },
    {
      "inputs": [
        {
          "internalType": "address",
          "name": "delegatee",
          "type": "address"
        }
      ],
      "name": "delegate",
      "outputs": [],
      "stateMutability": "nonpayable",
      "type": "function"
    },
    {
      "inputs": [
        {
          "internalType": "address",
          "name": "delegatee",
          "type": "address"
        },
        {
          "internalType": "uint256",
          "name": "nonce",
          "type": "uint256"
        },
        {
          "internalType": "uint256",
          "name": "expiry",
          "type": "uint256"
        },
        {
          "internalType": "uint8",
          "name": "v",
          "type": "uint8"
        },
        {
          "internalType": "bytes32",
          "name": "r",
          "type": "bytes32"
        },
        {
          "internalType": "bytes32",
          "name": "s",
          "type": "bytes32"
        }
      ],
      "name": "delegateBySig",
      "outputs": [],
      "stateMutability": "nonpayable",
      "type": "function"
    },
    {
      "inputs": [
        {
          "internalType": "address",
          "name": "account",
          "type": "address"
        }
      ],
      "name": "delegates",
      "outputs": [
        {
          "internalType": "address",
          "name": "",
          "type": "address"
        }
      ],
      "stateMutability": "view",
      "type": "function",
      "constant": true
    },
    {
      "inputs": [
        {
          "internalType": "uint256",
          "name": "blockNumber",
          "type": "uint256"
        }
      ],
      "name": "getPastTotalSupply",
      "outputs": [
        {
          "internalType": "uint256",
          "name": "",
          "type": "uint256"
        }
      ],
      "stateMutability": "view",
      "type": "function",
      "constant": true
    },
    {
      "inputs": [
        {
          "internalType": "address",
          "name": "account",
          "type": "address"
        },
        {
          "internalType": "uint256",
          "name": "blockNumber",
          "type": "uint256"
        }
      ],
      "name": "getPastVotes",
      "outputs": [
        {
          "internalType": "uint256",
          "name": "",
          "type": "uint256"
        }
      ],
      "stateMutability": "view",
      "type": "function",
      "constant": true
    },
    {
      "inputs": [
        {
          "internalType": "address",
          "name": "account",
          "type": "address"
        }
      ],
      "name": "getVotes",
      "outputs": [
        {
          "internalType": "uint256",
          "name": "",
          "type": "uint256"
        }
      ],
      "stateMutability": "view",
      "type": "function",
      "constant": true
    },
    {
      "inputs": [
        {
          "internalType": "address",
          "name": "spender",
          "type": "address"
        },
        {
          "internalType": "uint256",
          "name": "addedValue",
          "type": "uint256"
        }
      ],
      "name": "increaseAllowance",
      "outputs": [
        {
          "internalType": "bool",
          "name": "",
          "type": "bool"
        }
      ],
      "stateMutability": "nonpayable",
      "type": "function"
    },
    {
      "inputs": [],
      "name": "name",
      "outputs": [
        {
          "internalType": "string",
          "name": "",
          "type": "string"
        }
      ],
      "stateMutability": "view",
      "type": "function",
      "constant": true
    },
    {
      "inputs": [
        {
          "internalType": "address",
          "name": "owner",
          "type": "address"
        }
      ],
      "name": "nonces",
      "outputs": [
        {
          "internalType": "uint256",
          "name": "",
          "type": "uint256"
        }
      ],
      "stateMutability": "view",
      "type": "function",
      "constant": true
    },
    {
      "inputs": [
        {
          "internalType": "address",
          "name": "account",
          "type": "address"
        }
      ],
      "name": "numCheckpoints",
      "outputs": [
        {
          "internalType": "uint32",
          "name": "",
          "type": "uint32"
        }
      ],
      "stateMutability": "view",
      "type": "function",
      "constant": true
    },
    {
      "inputs": [],
      "name": "owner",
      "outputs": [
        {
          "internalType": "address",
          "name": "",
          "type": "address"
        }
      ],
      "stateMutability": "view",
      "type": "function",
      "constant": true
    },
    {
      "inputs": [],
      "name": "paused",
      "outputs": [
        {
          "internalType": "bool",
          "name": "",
          "type": "bool"
        }
      ],
      "stateMutability": "view",
      "type": "function",
      "constant": true
    },
    {
      "inputs": [
        {
          "internalType": "address",
          "name": "owner",
          "type": "address"
        },
        {
          "internalType": "address",
          "name": "spender",
          "type": "address"
        },
        {
          "internalType": "uint256",
          "name": "value",
          "type": "uint256"
        },
        {
          "internalType": "uint256",
          "name": "deadline",
          "type": "uint256"
        },
        {
          "internalType": "uint8",
          "name": "v",
          "type": "uint8"
        },
        {
          "internalType": "bytes32",
          "name": "r",
          "type": "bytes32"
        },
        {
          "internalType": "bytes32",
          "name": "s",
          "type": "bytes32"
        }
      ],
      "name": "permit",
      "outputs": [],
      "stateMutability": "nonpayable",
      "type": "function"
    },
    {
      "inputs": [],
      "name": "renounceOwnership",
      "outputs": [],
      "stateMutability": "nonpayable",
      "type": "function"
    },
    {
      "inputs": [
        {
          "internalType": "address",
          "name": "",
          "type": "address"
        }
      ],
      "name": "scores",
      "outputs": [
        {
          "internalType": "uint256",
          "name": "",
          "type": "uint256"
        }
      ],
      "stateMutability": "view",
      "type": "function",
      "constant": true
    },
    {
      "inputs": [],
      "name": "symbol",
      "outputs": [
        {
          "internalType": "string",
          "name": "",
          "type": "string"
        }
      ],
      "stateMutability": "view",
      "type": "function",
      "constant": true
    },
    {
      "inputs": [],
      "name": "totalSupply",
      "outputs": [
        {
          "internalType": "uint256",
          "name": "",
          "type": "uint256"
        }
      ],
      "stateMutability": "view",
      "type": "function",
      "constant": true
    },
    {
      "inputs": [
        {
          "internalType": "address",
          "name": "to",
          "type": "address"
        },
        {
          "internalType": "uint256",
          "name": "amount",
          "type": "uint256"
        }
      ],
      "name": "transfer",
      "outputs": [
        {
          "internalType": "bool",
          "name": "",
          "type": "bool"
        }
      ],
      "stateMutability": "nonpayable",
      "type": "function"
    },
    {
      "inputs": [
        {
          "internalType": "address",
          "name": "from",
          "type": "address"
        },
        {
          "internalType": "address",
          "name": "to",
          "type": "address"
        },
        {
          "internalType": "uint256",
          "name": "amount",
          "type": "uint256"
        }
      ],
      "name": "transferFrom",
      "outputs": [
        {
          "internalType": "bool",
          "name": "",
          "type": "bool"
        }
      ],
      "stateMutability": "nonpayable",
      "type": "function"
    },
    {
      "inputs": [
        {
          "internalType": "address",
          "name": "newOwner",
          "type": "address"
        }
      ],
      "name": "transferOwnership",
      "outputs": [],
      "stateMutability": "nonpayable",
      "type": "function"
    },
    {
      "inputs": [],
      "name": "pause",
      "outputs": [],
      "stateMutability": "nonpayable",
      "type": "function"
    },
    {
      "inputs": [],
      "name": "unpause",
      "outputs": [],
      "stateMutability": "nonpayable",
      "type": "function"
    },
    {
      "inputs": [
        {
          "internalType": "address",
          "name": "to",
          "type": "address"
        },
        {
          "internalType": "uint256",
          "name": "amount",
          "type": "uint256"
        }
      ],
      "name": "mint",
      "outputs": [],
      "stateMutability": "nonpayable",
      "type": "function"
    },
    {
      "inputs": [
        {
          "internalType": "address",
          "name": "to",
          "type": "address"
        },
        {
          "internalType": "uint256",
          "name": "amount",
          "type": "uint256"
        }
      ],
      "name": "burnToken",
      "outputs": [],
      "stateMutability": "nonpayable",
      "type": "function"
    },
    {
      "inputs": [
        {
          "internalType": "address",
          "name": "addr",
          "type": "address"
        }
      ],
      "name": "getScore",
      "outputs": [
        {
          "internalType": "uint256",
          "name": "",
          "type": "uint256"
        }
      ],
      "stateMutability": "view",
      "type": "function",
      "constant": true
    },
    {
      "inputs": [
        {
          "internalType": "address",
          "name": "addr",
          "type": "address"
        },
        {
          "internalType": "uint256",
          "name": "point",
          "type": "uint256"
        }
      ],
      "name": "updateScore",
      "outputs": [],
      "stateMutability": "nonpayable",
      "type": "function"
    }
  ],
  "bytecode": "0x6101406040523480156200001257600080fd5b5060405162004e5338038062004e53833981810160405281019062000038919062000560565b81806040518060400160405280600181526020017f3100000000000000000000000000000000000000000000000000000000000000815250848481600390805190602001906200008a92919062000313565b508060049080519060200190620000a392919062000313565b5050506000600560006101000a81548160ff021916908315150217905550620000e1620000d56200020960201b60201c565b6200021160201b60201c565b60008280519060200120905060008280519060200120905060007f8b73c3c69bb8fe3d512ecc4cf759cc79239f7b179b0ffacaa9a75d522b39400f90508260e081815250508161010081815250504660a081815250506200014a818484620002d760201b60201c565b608081815250503073ffffffffffffffffffffffffffffffffffffffff1660c08173ffffffffffffffffffffffffffffffffffffffff168152505080610120818152505050505050505081600b9080519060200190620001ac92919062000313565b5080600c9080519060200190620001c592919062000313565b507ff9c545e22be560f143ae9cd69f5b3e492fab353d3708a8a670db31c32b485a838282604051620001f992919062000642565b60405180910390a15050620007ba565b600033905090565b6000600560019054906101000a900473ffffffffffffffffffffffffffffffffffffffff16905081600560016101000a81548173ffffffffffffffffffffffffffffffffffffffff021916908373ffffffffffffffffffffffffffffffffffffffff1602179055508173ffffffffffffffffffffffffffffffffffffffff168173ffffffffffffffffffffffffffffffffffffffff167f8be0079c531659141344cd1fd0a4f28419497f9722a3daafe3b4186f6b6457e060405160405180910390a35050565b60008383834630604051602001620002f4959493929190620006f8565b6040516020818303038152906040528051906020012090509392505050565b828054620003219062000784565b90600052602060002090601f01602090048101928262000345576000855562000391565b82601f106200036057805160ff191683800117855562000391565b8280016001018555821562000391579182015b828111156200039057825182559160200191906001019062000373565b5b509050620003a09190620003a4565b5090565b5b80821115620003bf576000816000905550600101620003a5565b5090565b6000604051905090565b600080fd5b600080fd5b600080fd5b600080fd5b6000601f19601f8301169050919050565b7f4e487b7100000000000000000000000000000000000000000000000000000000600052604160045260246000fd5b6200042c82620003e1565b810181811067ffffffffffffffff821117156200044e576200044d620003f2565b5b80604052505050565b600062000463620003c3565b905062000471828262000421565b919050565b600067ffffffffffffffff821115620004945762000493620003f2565b5b6200049f82620003e1565b9050602081019050919050565b60005b83811015620004cc578082015181840152602081019050620004af565b83811115620004dc576000848401525b50505050565b6000620004f9620004f38462000476565b62000457565b905082815260208101848484011115620005185762000517620003dc565b5b62000525848285620004ac565b509392505050565b600082601f830112620005455762000544620003d7565b5b815162000557848260208601620004e2565b91505092915050565b600080604083850312156200057a5762000579620003cd565b5b600083015167ffffffffffffffff8111156200059b576200059a620003d2565b5b620005a9858286016200052d565b925050602083015167ffffffffffffffff811115620005cd57620005cc620003d2565b5b620005db858286016200052d565b9150509250929050565b600081519050919050565b600082825260208201905092915050565b60006200060e82620005e5565b6200061a8185620005f0565b93506200062c818560208601620004ac565b6200063781620003e1565b840191505092915050565b600060408201905081810360008301526200065e818562000601565b9050818103602083015262000674818462000601565b90509392505050565b6000819050919050565b62000692816200067d565b82525050565b6000819050919050565b620006ad8162000698565b82525050565b600073ffffffffffffffffffffffffffffffffffffffff82169050919050565b6000620006e082620006b3565b9050919050565b620006f281620006d3565b82525050565b600060a0820190506200070f600083018862000687565b6200071e602083018762000687565b6200072d604083018662000687565b6200073c6060830185620006a2565b6200074b6080830184620006e7565b9695505050505050565b7f4e487b7100000000000000000000000000000000000000000000000000000000600052602260045260246000fd5b600060028204905060018216806200079d57607f821691505b60208210811415620007b457620007b362000755565b5b50919050565b60805160a05160c05160e05161010051610120516146496200080a6000396000611993015260006119d5015260006119b4015260006118e90152600061193f0152600061196801526146496000f3fe608060405234801561001057600080fd5b50600436106102115760003560e01c8063715018a611610125578063a457c2d7116100ad578063d47875d01161007c578063d47875d01461063a578063d505accf1461066a578063dd62ed3e14610686578063f1127ed8146106b6578063f2fde38b146106e657610211565b8063a457c2d7146105a2578063a9059cbb146105d2578063c3cda52014610602578063d1df306c1461061e57610211565b80638456cb59116100f45780638456cb59146104fc5780638da5cb5b146105065780638e539e8c1461052457806395d89b41146105545780639ab24eb01461057257610211565b8063715018a61461047657806376dd110f1461048057806379cc6790146104b05780637ecebe00146104cc57610211565b80633f4ba83a116101a85780635c19a95c116101775780635c19a95c146103c05780635c975abb146103dc57806365d97724146103fa5780636fcfff451461041657806370a082311461044657610211565b80633f4ba83a1461034e57806340c10f191461035857806342966c6814610374578063587cde1e1461039057610211565b8063313ce567116101e4578063313ce567146102b25780633644e515146102d057806339509351146102ee5780633a46b1a81461031e57610211565b806306fdde0314610216578063095ea7b31461023457806318160ddd1461026457806323b872dd14610282575b600080fd5b61021e610702565b60405161022b9190612fb1565b60405180910390f35b61024e6004803603810190610249919061306c565b610794565b60405161025b91906130c7565b60405180910390f35b61026c6107b7565b60405161027991906130f1565b60405180910390f35b61029c6004803603810190610297919061310c565b6107c1565b6040516102a991906130c7565b60405180910390f35b6102ba6107f0565b6040516102c7919061317b565b60405180910390f35b6102d86107f9565b6040516102e591906131af565b60405180910390f35b6103086004803603810190610303919061306c565b610808565b60405161031591906130c7565b60405180910390f35b6103386004803603810190610333919061306c565b61083f565b60405161034591906130f1565b60405180910390f35b6103566108d3565b005b610372600480360381019061036d919061306c565b6108e5565b005b61038e600480360381019061038991906131ca565b61093e565b005b6103aa60048036038101906103a591906131f7565b610952565b6040516103b79190613233565b60405180910390f35b6103da60048036038101906103d591906131f7565b6109bb565b005b6103e46109cf565b6040516103f191906130c7565b60405180910390f35b610414600480360381019061040f919061306c565b6109e6565b005b610430600480360381019061042b91906131f7565b610b04565b60405161043d919061326d565b60405180910390f35b610460600480360381019061045b91906131f7565b610b58565b60405161046d91906130f1565b60405180910390f35b61047e610ba0565b005b61049a600480360381019061049591906131f7565b610bb4565b6040516104a791906130f1565b60405180910390f35b6104ca60048036038101906104c5919061306c565b610bcc565b005b6104e660048036038101906104e191906131f7565b610bec565b6040516104f391906130f1565b60405180910390f35b610504610c3c565b005b61050e610c4e565b60405161051b9190613233565b60405180910390f35b61053e600480360381019061053991906131ca565b610c78565b60405161054b91906130f1565b60405180910390f35b61055c610cce565b6040516105699190612fb1565b60405180910390f35b61058c600480360381019061058791906131f7565b610d60565b60405161059991906130f1565b60405180910390f35b6105bc60048036038101906105b7919061306c565b610e71565b6040516105c991906130c7565b60405180910390f35b6105ec60048036038101906105e7919061306c565b610ee8565b6040516105f991906130c7565b60405180910390f35b61061c600480360381019061061791906132e0565b610f0b565b005b6106386004803603810190610633919061306c565b61100f565b005b610654600480360381019061064f91906131f7565b611068565b60405161066191906130f1565b60405180910390f35b610684600480360381019061067f919061336d565b6110b1565b005b6106a0600480360381019061069b919061340f565b6111f3565b6040516106ad91906130f1565b60405180910390f35b6106d060048036038101906106cb919061347b565b61127a565b6040516106dd9190613530565b60405180910390f35b61070060048036038101906106fb91906131f7565b61138a565b005b6060600380546107119061357a565b80601f016020809104026020016040519081016040528092919081815260200182805461073d9061357a565b801561078a5780601f1061075f5761010080835404028352916020019161078a565b820191906000526020600020905b81548152906001019060200180831161076d57829003601f168201915b5050505050905090565b60008061079f61140e565b90506107ac818585611416565b600191505092915050565b6000600254905090565b6000806107cc61140e565b90506107d98582856115e1565b6107e485858561166d565b60019150509392505050565b60006012905090565b60006108036118e5565b905090565b60008061081361140e565b905061083481858561082585896111f3565b61082f91906135db565b611416565b600191505092915050565b6000438210610883576040517f08c379a000000000000000000000000000000000000000000000000000000000815260040161087a9061367d565b60405180910390fd5b6108cb600960008573ffffffffffffffffffffffffffffffffffffffff1673ffffffffffffffffffffffffffffffffffffffff168152602001908152602001600020836119ff565b905092915050565b6108db611b50565b6108e3611bce565b565b6108ed611b50565b6108f78282611c31565b7f9514920c08fa4373c9a5b5890506117cc1440d576c6db247e5efad7bfd49ec71828261092385610b58565b6040516109329392919061369d565b60405180910390a15050565b61094f61094961140e565b82611c3f565b50565b6000600860008373ffffffffffffffffffffffffffffffffffffffff1673ffffffffffffffffffffffffffffffffffffffff16815260200190815260200160002060009054906101000a900473ffffffffffffffffffffffffffffffffffffffff169050919050565b6109cc6109c661140e565b82611c4d565b50565b6000600560009054906101000a900460ff16905090565b6109ee611b50565b6000600d60008473ffffffffffffffffffffffffffffffffffffffff1673ffffffffffffffffffffffffffffffffffffffff16815260200190815260200160002054905060008282610a4091906135db565b905080600d60008673ffffffffffffffffffffffffffffffffffffffff1673ffffffffffffffffffffffffffffffffffffffff168152602001908152602001600020819055507f013b1f39636d8a559b1ef1abc9d01e6f201339ec01197b878d56e90509edf0fc84600d60008773ffffffffffffffffffffffffffffffffffffffff1673ffffffffffffffffffffffffffffffffffffffff16815260200190815260200160002054604051610af69291906136d4565b60405180910390a150505050565b6000610b51600960008473ffffffffffffffffffffffffffffffffffffffff1673ffffffffffffffffffffffffffffffffffffffff16815260200190815260200160002080549050611d67565b9050919050565b60008060008373ffffffffffffffffffffffffffffffffffffffff1673ffffffffffffffffffffffffffffffffffffffff168152602001908152602001600020549050919050565b610ba8611b50565b610bb26000611dba565b565b600d6020528060005260406000206000915090505481565b610bde82610bd861140e565b836115e1565b610be88282611c3f565b5050565b6000610c35600660008473ffffffffffffffffffffffffffffffffffffffff1673ffffffffffffffffffffffffffffffffffffffff168152602001908152602001600020611e80565b9050919050565b610c44611b50565b610c4c611e8e565b565b6000600560019054906101000a900473ffffffffffffffffffffffffffffffffffffffff16905090565b6000438210610cbc576040517f08c379a0000000000000000000000000000000000000000000000000000000008152600401610cb39061367d565b60405180910390fd5b610cc7600a836119ff565b9050919050565b606060048054610cdd9061357a565b80601f0160208091040260200160405190810160405280929190818152602001828054610d099061357a565b8015610d565780601f10610d2b57610100808354040283529160200191610d56565b820191906000526020600020905b815481529060010190602001808311610d3957829003601f168201915b5050505050905090565b600080600960008473ffffffffffffffffffffffffffffffffffffffff1673ffffffffffffffffffffffffffffffffffffffff16815260200190815260200160002080549050905060008114610e4857600960008473ffffffffffffffffffffffffffffffffffffffff1673ffffffffffffffffffffffffffffffffffffffff168152602001908152602001600020600182610dfc91906136fd565b81548110610e0d57610e0c613731565b5b9060005260206000200160000160049054906101000a90047bffffffffffffffffffffffffffffffffffffffffffffffffffffffff16610e4b565b60005b7bffffffffffffffffffffffffffffffffffffffffffffffffffffffff16915050919050565b600080610e7c61140e565b90506000610e8a82866111f3565b905083811015610ecf576040517f08c379a0000000000000000000000000000000000000000000000000000000008152600401610ec6906137d2565b60405180910390fd5b610edc8286868403611416565b60019250505092915050565b600080610ef361140e565b9050610f0081858561166d565b600191505092915050565b83421115610f4e576040517f08c379a0000000000000000000000000000000000000000000000000000000008152600401610f459061383e565b60405180910390fd5b6000610fb0610fa87fe48329057bfd03d55e49b547132e39cffd9c1820ad7b9d4c5307691425d15adf898989604051602001610f8d949392919061385e565b60405160208183030381529060405280519060200120611ef1565b858585611f0b565b9050610fbb81611f36565b8614610ffc576040517f08c379a0000000000000000000000000000000000000000000000000000000008152600401610ff3906138ef565b60405180910390fd5b6110068188611c4d565b50505050505050565b611017611b50565b6110218282611c3f565b7f9514920c08fa4373c9a5b5890506117cc1440d576c6db247e5efad7bfd49ec71828261104d85610b58565b60405161105c9392919061369d565b60405180910390a15050565b6000600d60008373ffffffffffffffffffffffffffffffffffffffff1673ffffffffffffffffffffffffffffffffffffffff168152602001908152602001600020549050919050565b834211156110f4576040517f08c379a00000000000000000000000000000000000000000000000000000000081526004016110eb9061395b565b60405180910390fd5b60007f6e71edae12b1b97f4d1f60370fef10105fa2faae0126114a169c64845d6126c98888886111238c611f36565b896040516020016111399695949392919061397b565b604051602081830303815290604052805190602001209050600061115c82611ef1565b9050600061116c82878787611f0b565b90508973ffffffffffffffffffffffffffffffffffffffff168173ffffffffffffffffffffffffffffffffffffffff16146111dc576040517f08c379a00000000000000000000000000000000000000000000000000000000081526004016111d390613a28565b60405180910390fd5b6111e78a8a8a611416565b50505050505050505050565b6000600160008473ffffffffffffffffffffffffffffffffffffffff1673ffffffffffffffffffffffffffffffffffffffff16815260200190815260200160002060008373ffffffffffffffffffffffffffffffffffffffff1673ffffffffffffffffffffffffffffffffffffffff16815260200190815260200160002054905092915050565b611282612eda565b600960008473ffffffffffffffffffffffffffffffffffffffff1673ffffffffffffffffffffffffffffffffffffffff1681526020019081526020016000208263ffffffff16815481106112d9576112d8613731565b5b906000526020600020016040518060400160405290816000820160009054906101000a900463ffffffff1663ffffffff1663ffffffff1681526020016000820160049054906101000a90047bffffffffffffffffffffffffffffffffffffffffffffffffffffffff167bffffffffffffffffffffffffffffffffffffffffffffffffffffffff167bffffffffffffffffffffffffffffffffffffffffffffffffffffffff1681525050905092915050565b611392611b50565b600073ffffffffffffffffffffffffffffffffffffffff168173ffffffffffffffffffffffffffffffffffffffff161415611402576040517f08c379a00000000000000000000000000000000000000000000000000000000081526004016113f990613aba565b60405180910390fd5b61140b81611dba565b50565b600033905090565b600073ffffffffffffffffffffffffffffffffffffffff168373ffffffffffffffffffffffffffffffffffffffff161415611486576040517f08c379a000000000000000000000000000000000000000000000000000000000815260040161147d90613b4c565b60405180910390fd5b600073ffffffffffffffffffffffffffffffffffffffff168273ffffffffffffffffffffffffffffffffffffffff1614156114f6576040517f08c379a00000000000000000000000000000000000000000000000000000000081526004016114ed90613bde565b60405180910390fd5b80600160008573ffffffffffffffffffffffffffffffffffffffff1673ffffffffffffffffffffffffffffffffffffffff16815260200190815260200160002060008473ffffffffffffffffffffffffffffffffffffffff1673ffffffffffffffffffffffffffffffffffffffff168152602001908152602001600020819055508173ffffffffffffffffffffffffffffffffffffffff168373ffffffffffffffffffffffffffffffffffffffff167f8c5be1e5ebec7d5bd14f71427d1e84f3dd0314c0f7b2291e5b200ac8c7c3b925836040516115d491906130f1565b60405180910390a3505050565b60006115ed84846111f3565b90507fffffffffffffffffffffffffffffffffffffffffffffffffffffffffffffffff81146116675781811015611659576040517f08c379a000000000000000000000000000000000000000000000000000000000815260040161165090613c4a565b60405180910390fd5b6116668484848403611416565b5b50505050565b600073ffffffffffffffffffffffffffffffffffffffff168373ffffffffffffffffffffffffffffffffffffffff1614156116dd576040517f08c379a00000000000000000000000000000000000000000000000000000000081526004016116d490613cdc565b60405180910390fd5b600073ffffffffffffffffffffffffffffffffffffffff168273ffffffffffffffffffffffffffffffffffffffff16141561174d576040517f08c379a000000000000000000000000000000000000000000000000000000000815260040161174490613d6e565b60405180910390fd5b611758838383611f94565b60008060008573ffffffffffffffffffffffffffffffffffffffff1673ffffffffffffffffffffffffffffffffffffffff168152602001908152602001600020549050818110156117de576040517f08c379a00000000000000000000000000000000000000000000000000000000081526004016117d590613e00565b60405180910390fd5b8181036000808673ffffffffffffffffffffffffffffffffffffffff1673ffffffffffffffffffffffffffffffffffffffff16815260200190815260200160002081905550816000808573ffffffffffffffffffffffffffffffffffffffff1673ffffffffffffffffffffffffffffffffffffffff168152602001908152602001600020600082825401925050819055508273ffffffffffffffffffffffffffffffffffffffff168473ffffffffffffffffffffffffffffffffffffffff167fddf252ad1be2c89b69c2b068fc378daa952ba7f163c4a11628f55a4df523b3ef846040516118cc91906130f1565b60405180910390a36118df848484611fac565b50505050565b60007f000000000000000000000000000000000000000000000000000000000000000073ffffffffffffffffffffffffffffffffffffffff163073ffffffffffffffffffffffffffffffffffffffff1614801561196157507f000000000000000000000000000000000000000000000000000000000000000046145b1561198e577f000000000000000000000000000000000000000000000000000000000000000090506119fc565b6119f97f00000000000000000000000000000000000000000000000000000000000000007f00000000000000000000000000000000000000000000000000000000000000007f0000000000000000000000000000000000000000000000000000000000000000611fbc565b90505b90565b600080838054905090506000808290506005831115611a75576000611a2384611ff6565b84611a2e91906136fd565b905085611a3b88836120f0565b60000160009054906101000a900463ffffffff1663ffffffff161115611a6357809150611a73565b600181611a7091906135db565b92505b505b5b80821015611ad5576000611a8a8383612105565b905085611a9788836120f0565b60000160009054906101000a900463ffffffff1663ffffffff161115611abf57809150611acf565b600181611acc91906135db565b92505b50611a76565b60008114611b2457611af386600183611aee91906136fd565b6120f0565b60000160049054906101000a90047bffffffffffffffffffffffffffffffffffffffffffffffffffffffff16611b27565b60005b7bffffffffffffffffffffffffffffffffffffffffffffffffffffffff16935050505092915050565b611b5861140e565b73ffffffffffffffffffffffffffffffffffffffff16611b76610c4e565b73ffffffffffffffffffffffffffffffffffffffff1614611bcc576040517f08c379a0000000000000000000000000000000000000000000000000000000008152600401611bc390613e6c565b60405180910390fd5b565b611bd661212b565b6000600560006101000a81548160ff0219169083151502179055507f5db9ee0a495bf2e6ff9c91a7834c1ba4fdd244a5e8aa4e537bd38aeae4b073aa611c1a61140e565b604051611c279190613233565b60405180910390a1565b611c3b8282612174565b5050565b611c498282612201565b5050565b6000611c5883610952565b90506000611c6584610b58565b905082600860008673ffffffffffffffffffffffffffffffffffffffff1673ffffffffffffffffffffffffffffffffffffffff16815260200190815260200160002060006101000a81548173ffffffffffffffffffffffffffffffffffffffff021916908373ffffffffffffffffffffffffffffffffffffffff1602179055508273ffffffffffffffffffffffffffffffffffffffff168273ffffffffffffffffffffffffffffffffffffffff168573ffffffffffffffffffffffffffffffffffffffff167f3134e8a2e6d97e929a7e54011ea5485d7d196dd5f0ba4d4ef95803e8e3fc257f60405160405180910390a4611d6182848361221f565b50505050565b600063ffffffff8016821115611db2576040517f08c379a0000000000000000000000000000000000000000000000000000000008152600401611da990613efe565b60405180910390fd5b819050919050565b6000600560019054906101000a900473ffffffffffffffffffffffffffffffffffffffff16905081600560016101000a81548173ffffffffffffffffffffffffffffffffffffffff021916908373ffffffffffffffffffffffffffffffffffffffff1602179055508173ffffffffffffffffffffffffffffffffffffffff168173ffffffffffffffffffffffffffffffffffffffff167f8be0079c531659141344cd1fd0a4f28419497f9722a3daafe3b4186f6b6457e060405160405180910390a35050565b600081600001549050919050565b611e96612418565b6001600560006101000a81548160ff0219169083151502179055507f62e78cea01bee320cd4e420270b5ea74000d11b0c9f74754ebdbfc544b05a258611eda61140e565b604051611ee79190613233565b60405180910390a1565b6000611f04611efe6118e5565b83612462565b9050919050565b6000806000611f1c87878787612495565b91509150611f2981612578565b8192505050949350505050565b600080600660008473ffffffffffffffffffffffffffffffffffffffff1673ffffffffffffffffffffffffffffffffffffffff1681526020019081526020016000209050611f8381611e80565b9150611f8e816126e6565b50919050565b611f9c612418565b611fa78383836126fc565b505050565b611fb7838383612701565b505050565b60008383834630604051602001611fd7959493929190613f1e565b6040516020818303038152906040528051906020012090509392505050565b60008082141561200957600090506120eb565b600060016120168461272c565b901c6001901b905060018184816120305761202f613f71565b5b048201901c9050600181848161204957612048613f71565b5b048201901c9050600181848161206257612061613f71565b5b048201901c9050600181848161207b5761207a613f71565b5b048201901c9050600181848161209457612093613f71565b5b048201901c905060018184816120ad576120ac613f71565b5b048201901c905060018184816120c6576120c5613f71565b5b048201901c90506120e7818285816120e1576120e0613f71565b5b0461280d565b9150505b919050565b60008260005281602060002001905092915050565b600060028284186121169190613fa0565b82841661212391906135db565b905092915050565b6121336109cf565b612172576040517f08c379a00000000000000000000000000000000000000000000000000000000081526004016121699061401d565b60405180910390fd5b565b61217e8282612826565b61218661297d565b7bffffffffffffffffffffffffffffffffffffffffffffffffffffffff166121ac6107b7565b11156121ed576040517f08c379a00000000000000000000000000000000000000000000000000000000081526004016121e4906140af565b60405180910390fd5b6121fb600a6129a1836129b7565b50505050565b61220b8282612c86565b612219600a612e54836129b7565b50505050565b8173ffffffffffffffffffffffffffffffffffffffff168373ffffffffffffffffffffffffffffffffffffffff161415801561225b5750600081115b1561241357600073ffffffffffffffffffffffffffffffffffffffff168373ffffffffffffffffffffffffffffffffffffffff1614612339576000806122e2600960008773ffffffffffffffffffffffffffffffffffffffff1673ffffffffffffffffffffffffffffffffffffffff168152602001908152602001600020612e54856129b7565b915091508473ffffffffffffffffffffffffffffffffffffffff167fdec2bacdd2f05b59de34da9b523dff8be42e5e38e818c82fdb0bae774387a724838360405161232e9291906140cf565b60405180910390a250505b600073ffffffffffffffffffffffffffffffffffffffff168273ffffffffffffffffffffffffffffffffffffffff1614612412576000806123bb600960008673ffffffffffffffffffffffffffffffffffffffff1673ffffffffffffffffffffffffffffffffffffffff1681526020019081526020016000206129a1856129b7565b915091508373ffffffffffffffffffffffffffffffffffffffff167fdec2bacdd2f05b59de34da9b523dff8be42e5e38e818c82fdb0bae774387a72483836040516124079291906140cf565b60405180910390a250505b5b505050565b6124206109cf565b15612460576040517f08c379a000000000000000000000000000000000000000000000000000000000815260040161245790614144565b60405180910390fd5b565b600082826040516020016124779291906141dc565b60405160208183030381529060405280519060200120905092915050565b6000807f7fffffffffffffffffffffffffffffff5d576e7357a4501ddfe92f46681b20a08360001c11156124d057600060039150915061256f565b6000600187878787604051600081526020016040526040516124f59493929190614213565b6020604051602081039080840390855afa158015612517573d6000803e3d6000fd5b505050602060405103519050600073ffffffffffffffffffffffffffffffffffffffff168173ffffffffffffffffffffffffffffffffffffffff1614156125665760006001925092505061256f565b80600092509250505b94509492505050565b6000600481111561258c5761258b614258565b5b81600481111561259f5761259e614258565b5b14156125aa576126e3565b600160048111156125be576125bd614258565b5b8160048111156125d1576125d0614258565b5b1415612612576040517f08c379a0000000000000000000000000000000000000000000000000000000008152600401612609906142d3565b60405180910390fd5b6002600481111561262657612625614258565b5b81600481111561263957612638614258565b5b141561267a576040517f08c379a00000000000000000000000000000000000000000000000000000000081526004016126719061433f565b60405180910390fd5b6003600481111561268e5761268d614258565b5b8160048111156126a1576126a0614258565b5b14156126e2576040517f08c379a00000000000000000000000000000000000000000000000000000000081526004016126d9906143d1565b60405180910390fd5b5b50565b6001816000016000828254019250508190555050565b505050565b61270c838383612e6a565b61272761271884610952565b61272184610952565b8361221f565b505050565b600080600090506000608084901c111561274e57608083901c92506080810190505b6000604084901c111561276957604083901c92506040810190505b6000602084901c111561278457602083901c92506020810190505b6000601084901c111561279f57601083901c92506010810190505b6000600884901c11156127ba57600883901c92506008810190505b6000600484901c11156127d557600483901c92506004810190505b6000600284901c11156127f057600283901c92506002810190505b6000600184901c1115612804576001810190505b80915050919050565b600081831061281c578161281e565b825b905092915050565b600073ffffffffffffffffffffffffffffffffffffffff168273ffffffffffffffffffffffffffffffffffffffff161415612896576040517f08c379a000000000000000000000000000000000000000000000000000000000815260040161288d9061443d565b60405180910390fd5b6128a260008383611f94565b80600260008282546128b491906135db565b92505081905550806000808473ffffffffffffffffffffffffffffffffffffffff1673ffffffffffffffffffffffffffffffffffffffff168152602001908152602001600020600082825401925050819055508173ffffffffffffffffffffffffffffffffffffffff16600073ffffffffffffffffffffffffffffffffffffffff167fddf252ad1be2c89b69c2b068fc378daa952ba7f163c4a11628f55a4df523b3ef8360405161296591906130f1565b60405180910390a361297960008383611fac565b5050565b60007bffffffffffffffffffffffffffffffffffffffffffffffffffffffff905090565b600081836129af91906135db565b905092915050565b6000806000858054905090506000808214612a86576129e2876001846129dd91906136fd565b6120f0565b6040518060400160405290816000820160009054906101000a900463ffffffff1663ffffffff1663ffffffff1681526020016000820160049054906101000a90047bffffffffffffffffffffffffffffffffffffffffffffffffffffffff167bffffffffffffffffffffffffffffffffffffffffffffffffffffffff167bffffffffffffffffffffffffffffffffffffffffffffffffffffffff1681525050612ac2565b6040518060400160405280600063ffffffff16815260200160007bffffffffffffffffffffffffffffffffffffffffffffffffffffffff168152505b905080602001517bffffffffffffffffffffffffffffffffffffffffffffffffffffffff169350612af784868863ffffffff16565b9250600082118015612b12575043816000015163ffffffff16145b15612b8c57612b2083612e6f565b612b3688600185612b3191906136fd565b6120f0565b60000160046101000a8154817bffffffffffffffffffffffffffffffffffffffffffffffffffffffff02191690837bffffffffffffffffffffffffffffffffffffffffffffffffffffffff160217905550612c7c565b866040518060400160405280612ba143611d67565b63ffffffff168152602001612bb586612e6f565b7bffffffffffffffffffffffffffffffffffffffffffffffffffffffff168152509080600181540180825580915050600190039060005260206000200160009091909190915060008201518160000160006101000a81548163ffffffff021916908363ffffffff16021790555060208201518160000160046101000a8154817bffffffffffffffffffffffffffffffffffffffffffffffffffffffff02191690837bffffffffffffffffffffffffffffffffffffffffffffffffffffffff16021790555050505b5050935093915050565b600073ffffffffffffffffffffffffffffffffffffffff168273ffffffffffffffffffffffffffffffffffffffff161415612cf6576040517f08c379a0000000000000000000000000000000000000000000000000000000008152600401612ced906144cf565b60405180910390fd5b612d0282600083611f94565b60008060008473ffffffffffffffffffffffffffffffffffffffff1673ffffffffffffffffffffffffffffffffffffffff16815260200190815260200160002054905081811015612d88576040517f08c379a0000000000000000000000000000000000000000000000000000000008152600401612d7f90614561565b60405180910390fd5b8181036000808573ffffffffffffffffffffffffffffffffffffffff1673ffffffffffffffffffffffffffffffffffffffff1681526020019081526020016000208190555081600260008282540392505081905550600073ffffffffffffffffffffffffffffffffffffffff168373ffffffffffffffffffffffffffffffffffffffff167fddf252ad1be2c89b69c2b068fc378daa952ba7f163c4a11628f55a4df523b3ef84604051612e3b91906130f1565b60405180910390a3612e4f83600084611fac565b505050565b60008183612e6291906136fd565b905092915050565b505050565b60007bffffffffffffffffffffffffffffffffffffffffffffffffffffffff8016821115612ed2576040517f08c379a0000000000000000000000000000000000000000000000000000000008152600401612ec9906145f3565b60405180910390fd5b819050919050565b6040518060400160405280600063ffffffff16815260200160007bffffffffffffffffffffffffffffffffffffffffffffffffffffffff1681525090565b600081519050919050565b600082825260208201905092915050565b60005b83811015612f52578082015181840152602081019050612f37565b83811115612f61576000848401525b50505050565b6000601f19601f8301169050919050565b6000612f8382612f18565b612f8d8185612f23565b9350612f9d818560208601612f34565b612fa681612f67565b840191505092915050565b60006020820190508181036000830152612fcb8184612f78565b905092915050565b600080fd5b600073ffffffffffffffffffffffffffffffffffffffff82169050919050565b600061300382612fd8565b9050919050565b61301381612ff8565b811461301e57600080fd5b50565b6000813590506130308161300a565b92915050565b6000819050919050565b61304981613036565b811461305457600080fd5b50565b60008135905061306681613040565b92915050565b6000806040838503121561308357613082612fd3565b5b600061309185828601613021565b92505060206130a285828601613057565b9150509250929050565b60008115159050919050565b6130c1816130ac565b82525050565b60006020820190506130dc60008301846130b8565b92915050565b6130eb81613036565b82525050565b600060208201905061310660008301846130e2565b92915050565b60008060006060848603121561312557613124612fd3565b5b600061313386828701613021565b935050602061314486828701613021565b925050604061315586828701613057565b9150509250925092565b600060ff82169050919050565b6131758161315f565b82525050565b6000602082019050613190600083018461316c565b92915050565b6000819050919050565b6131a981613196565b82525050565b60006020820190506131c460008301846131a0565b92915050565b6000602082840312156131e0576131df612fd3565b5b60006131ee84828501613057565b91505092915050565b60006020828403121561320d5761320c612fd3565b5b600061321b84828501613021565b91505092915050565b61322d81612ff8565b82525050565b60006020820190506132486000830184613224565b92915050565b600063ffffffff82169050919050565b6132678161324e565b82525050565b6000602082019050613282600083018461325e565b92915050565b6132918161315f565b811461329c57600080fd5b50565b6000813590506132ae81613288565b92915050565b6132bd81613196565b81146132c857600080fd5b50565b6000813590506132da816132b4565b92915050565b60008060008060008060c087890312156132fd576132fc612fd3565b5b600061330b89828a01613021565b965050602061331c89828a01613057565b955050604061332d89828a01613057565b945050606061333e89828a0161329f565b935050608061334f89828a016132cb565b92505060a061336089828a016132cb565b9150509295509295509295565b600080600080600080600060e0888a03121561338c5761338b612fd3565b5b600061339a8a828b01613021565b97505060206133ab8a828b01613021565b96505060406133bc8a828b01613057565b95505060606133cd8a828b01613057565b94505060806133de8a828b0161329f565b93505060a06133ef8a828b016132cb565b92505060c06134008a828b016132cb565b91505092959891949750929550565b6000806040838503121561342657613425612fd3565b5b600061343485828601613021565b925050602061344585828601613021565b9150509250929050565b6134588161324e565b811461346357600080fd5b50565b6000813590506134758161344f565b92915050565b6000806040838503121561349257613491612fd3565b5b60006134a085828601613021565b92505060206134b185828601613466565b9150509250929050565b6134c48161324e565b82525050565b60007bffffffffffffffffffffffffffffffffffffffffffffffffffffffff82169050919050565b6134fb816134ca565b82525050565b60408201600082015161351760008501826134bb565b50602082015161352a60208501826134f2565b50505050565b60006040820190506135456000830184613501565b92915050565b7f4e487b7100000000000000000000000000000000000000000000000000000000600052602260045260246000fd5b6000600282049050600182168061359257607f821691505b602082108114156135a6576135a561354b565b5b50919050565b7f4e487b7100000000000000000000000000000000000000000000000000000000600052601160045260246000fd5b60006135e682613036565b91506135f183613036565b9250827fffffffffffffffffffffffffffffffffffffffffffffffffffffffffffffffff03821115613626576136256135ac565b5b828201905092915050565b7f4552433230566f7465733a20626c6f636b206e6f7420796574206d696e656400600082015250565b6000613667601f83612f23565b915061367282613631565b602082019050919050565b600060208201905081810360008301526136968161365a565b9050919050565b60006060820190506136b26000830186613224565b6136bf60208301856130e2565b6136cc60408301846130e2565b949350505050565b60006040820190506136e96000830185613224565b6136f660208301846130e2565b9392505050565b600061370882613036565b915061371383613036565b925082821015613726576137256135ac565b5b828203905092915050565b7f4e487b7100000000000000000000000000000000000000000000000000000000600052603260045260246000fd5b7f45524332303a2064656372656173656420616c6c6f77616e63652062656c6f7760008201527f207a65726f000000000000000000000000000000000000000000000000000000602082015250565b60006137bc602583612f23565b91506137c782613760565b604082019050919050565b600060208201905081810360008301526137eb816137af565b9050919050565b7f4552433230566f7465733a207369676e61747572652065787069726564000000600082015250565b6000613828601d83612f23565b9150613833826137f2565b602082019050919050565b600060208201905081810360008301526138578161381b565b9050919050565b600060808201905061387360008301876131a0565b6138806020830186613224565b61388d60408301856130e2565b61389a60608301846130e2565b95945050505050565b7f4552433230566f7465733a20696e76616c6964206e6f6e636500000000000000600082015250565b60006138d9601983612f23565b91506138e4826138a3565b602082019050919050565b60006020820190508181036000830152613908816138cc565b9050919050565b7f45524332305065726d69743a206578706972656420646561646c696e65000000600082015250565b6000613945601d83612f23565b91506139508261390f565b602082019050919050565b6000602082019050818103600083015261397481613938565b9050919050565b600060c08201905061399060008301896131a0565b61399d6020830188613224565b6139aa6040830187613224565b6139b760608301866130e2565b6139c460808301856130e2565b6139d160a08301846130e2565b979650505050505050565b7f45524332305065726d69743a20696e76616c6964207369676e61747572650000600082015250565b6000613a12601e83612f23565b9150613a1d826139dc565b602082019050919050565b60006020820190508181036000830152613a4181613a05565b9050919050565b7f4f776e61626c653a206e6577206f776e657220697320746865207a65726f206160008201527f6464726573730000000000000000000000000000000000000000000000000000602082015250565b6000613aa4602683612f23565b9150613aaf82613a48565b604082019050919050565b60006020820190508181036000830152613ad381613a97565b9050919050565b7f45524332303a20617070726f76652066726f6d20746865207a65726f2061646460008201527f7265737300000000000000000000000000000000000000000000000000000000602082015250565b6000613b36602483612f23565b9150613b4182613ada565b604082019050919050565b60006020820190508181036000830152613b6581613b29565b9050919050565b7f45524332303a20617070726f766520746f20746865207a65726f20616464726560008201527f7373000000000000000000000000000000000000000000000000000000000000602082015250565b6000613bc8602283612f23565b9150613bd382613b6c565b604082019050919050565b60006020820190508181036000830152613bf781613bbb565b9050919050565b7f45524332303a20696e73756666696369656e7420616c6c6f77616e6365000000600082015250565b6000613c34601d83612f23565b9150613c3f82613bfe565b602082019050919050565b60006020820190508181036000830152613c6381613c27565b9050919050565b7f45524332303a207472616e736665722066726f6d20746865207a65726f20616460008201527f6472657373000000000000000000000000000000000000000000000000000000602082015250565b6000613cc6602583612f23565b9150613cd182613c6a565b604082019050919050565b60006020820190508181036000830152613cf581613cb9565b9050919050565b7f45524332303a207472616e7366657220746f20746865207a65726f206164647260008201527f6573730000000000000000000000000000000000000000000000000000000000602082015250565b6000613d58602383612f23565b9150613d6382613cfc565b604082019050919050565b60006020820190508181036000830152613d8781613d4b565b9050919050565b7f45524332303a207472616e7366657220616d6f756e742065786365656473206260008201527f616c616e63650000000000000000000000000000000000000000000000000000602082015250565b6000613dea602683612f23565b9150613df582613d8e565b604082019050919050565b60006020820190508181036000830152613e1981613ddd565b9050919050565b7f4f776e61626c653a2063616c6c6572206973206e6f7420746865206f776e6572600082015250565b6000613e56602083612f23565b9150613e6182613e20565b602082019050919050565b60006020820190508181036000830152613e8581613e49565b9050919050565b7f53616665436173743a2076616c756520646f65736e27742066697420696e203360008201527f3220626974730000000000000000000000000000000000000000000000000000602082015250565b6000613ee8602683612f23565b9150613ef382613e8c565b604082019050919050565b60006020820190508181036000830152613f1781613edb565b9050919050565b600060a082019050613f3360008301886131a0565b613f4060208301876131a0565b613f4d60408301866131a0565b613f5a60608301856130e2565b613f676080830184613224565b9695505050505050565b7f4e487b7100000000000000000000000000000000000000000000000000000000600052601260045260246000fd5b6000613fab82613036565b9150613fb683613036565b925082613fc657613fc5613f71565b5b828204905092915050565b7f5061757361626c653a206e6f7420706175736564000000000000000000000000600082015250565b6000614007601483612f23565b915061401282613fd1565b602082019050919050565b6000602082019050818103600083015261403681613ffa565b9050919050565b7f4552433230566f7465733a20746f74616c20737570706c79207269736b73206f60008201527f766572666c6f77696e6720766f74657300000000000000000000000000000000602082015250565b6000614099603083612f23565b91506140a48261403d565b604082019050919050565b600060208201905081810360008301526140c88161408c565b9050919050565b60006040820190506140e460008301856130e2565b6140f160208301846130e2565b9392505050565b7f5061757361626c653a2070617573656400000000000000000000000000000000600082015250565b600061412e601083612f23565b9150614139826140f8565b602082019050919050565b6000602082019050818103600083015261415d81614121565b9050919050565b600081905092915050565b7f1901000000000000000000000000000000000000000000000000000000000000600082015250565b60006141a5600283614164565b91506141b08261416f565b600282019050919050565b6000819050919050565b6141d66141d182613196565b6141bb565b82525050565b60006141e782614198565b91506141f382856141c5565b60208201915061420382846141c5565b6020820191508190509392505050565b600060808201905061422860008301876131a0565b614235602083018661316c565b61424260408301856131a0565b61424f60608301846131a0565b95945050505050565b7f4e487b7100000000000000000000000000000000000000000000000000000000600052602160045260246000fd5b7f45434453413a20696e76616c6964207369676e61747572650000000000000000600082015250565b60006142bd601883612f23565b91506142c882614287565b602082019050919050565b600060208201905081810360008301526142ec816142b0565b9050919050565b7f45434453413a20696e76616c6964207369676e6174757265206c656e67746800600082015250565b6000614329601f83612f23565b9150614334826142f3565b602082019050919050565b600060208201905081810360008301526143588161431c565b9050919050565b7f45434453413a20696e76616c6964207369676e6174757265202773272076616c60008201527f7565000000000000000000000000000000000000000000000000000000000000602082015250565b60006143bb602283612f23565b91506143c68261435f565b604082019050919050565b600060208201905081810360008301526143ea816143ae565b9050919050565b7f45524332303a206d696e7420746f20746865207a65726f206164647265737300600082015250565b6000614427601f83612f23565b9150614432826143f1565b602082019050919050565b600060208201905081810360008301526144568161441a565b9050919050565b7f45524332303a206275726e2066726f6d20746865207a65726f2061646472657360008201527f7300000000000000000000000000000000000000000000000000000000000000602082015250565b60006144b9602183612f23565b91506144c48261445d565b604082019050919050565b600060208201905081810360008301526144e8816144ac565b9050919050565b7f45524332303a206275726e20616d6f756e7420657863656564732062616c616e60008201527f6365000000000000000000000000000000000000000000000000000000000000602082015250565b600061454b602283612f23565b9150614556826144ef565b604082019050919050565b6000602082019050818103600083015261457a8161453e565b9050919050565b7f53616665436173743a2076616c756520646f65736e27742066697420696e203260008201527f3234206269747300000000000000000000000000000000000000000000000000602082015250565b60006145dd602783612f23565b91506145e882614581565b604082019050919050565b6000602082019050818103600083015261460c816145d0565b905091905056fea2646970667358221220fe1174a8cdac42d4e3a6c122be80c316b18f1e46fcf93a1c9b8a38f5ee3774cf64736f6c634300080a0033",
  "immutableReferences": {
    "4119": [
      {
        "length": 32,
        "start": 6504
      }
    ],
    "4121": [
      {
        "length": 32,
        "start": 6463
      }
    ],
    "4123": [
      {
        "length": 32,
        "start": 6377
      }
    ],
    "4125": [
      {
        "length": 32,
        "start": 6580
      }
    ],
    "4127": [
      {
        "length": 32,
        "start": 6613
      }
    ],
    "4129": [
      {
        "length": 32,
        "start": 6547
      }
    ]
  },
  "source": "// SPDX-License-Identifier: MIT\npragma solidity >=0.8.0;\n\nimport \"@openzeppelin/contracts/token/ERC20/ERC20.sol\";\nimport \"@openzeppelin/contracts/token/ERC20/extensions/ERC20Burnable.sol\";\nimport \"@openzeppelin/contracts/security/Pausable.sol\";\nimport \"@openzeppelin/contracts/access/Ownable.sol\";\nimport \"@openzeppelin/contracts/token/ERC20/extensions/draft-ERC20Permit.sol\";\nimport \"@openzeppelin/contracts/token/ERC20/extensions/ERC20Votes.sol\";\n\n/**\n * MyToken Contract\n */\ncontract MyToken is\n    ERC20,\n    ERC20Burnable,\n    Pausable,\n    Ownable,\n    ERC20Permit,\n    ERC20Votes\n{\n    // token\n    string tokenName;\n    // symbol\n    string tokenSymbol;\n\n    mapping(address => uint) public scores;\n\n    event TokenCreated(string name, string symbol);\n    event balanceChanged(address to, uint256 amount, uint balanceOf);\n    event UpdateScore(address to, uint score);\n\n    /**\n     * constructor\n     * @param _name token name\n     * @param _symbol symbol\n     */\n    constructor(\n        string memory _name,\n        string memory _symbol\n    ) ERC20(_name, _symbol) ERC20Permit(_name) {\n        // set\n        tokenName = _name;\n        tokenSymbol = _symbol;\n\n        emit TokenCreated(_name, _symbol);\n    }\n\n    /**\n     * pause function\n     */\n    function pause() public onlyOwner {\n        _pause();\n    }\n\n    /**\n     * unpause function\n     */\n    function unpause() public onlyOwner {\n        _unpause();\n    }\n\n    /**\n     * mint function\n     * @param to address\n     * @param amount amount\n     */\n    function mint(address to, uint256 amount) public onlyOwner {\n        _mint(to, amount);\n        emit balanceChanged(to, amount, balanceOf(to));\n    }\n\n    /**\n     * burn\n     * @param to address\n     * @param amount amount\n     */\n    function burnToken(address to, uint256 amount) public onlyOwner {\n        _burn(to, amount);\n        emit balanceChanged(to, amount, balanceOf(to));\n    }\n\n    function _beforeTokenTransfer(\n        address from,\n        address to,\n        uint256 amount\n    ) internal override whenNotPaused {\n        super._beforeTokenTransfer(from, to, amount);\n    }\n\n    function _afterTokenTransfer(\n        address from,\n        address to,\n        uint256 amount\n    ) internal override(ERC20, ERC20Votes) {\n        super._afterTokenTransfer(from, to, amount);\n    }\n\n    function _mint(\n        address to,\n        uint256 amount\n    ) internal override(ERC20, ERC20Votes) {\n        super._mint(to, amount);\n    }\n\n    function _burn(\n        address account,\n        uint256 amount\n    ) internal override(ERC20, ERC20Votes) {\n        super._burn(account, amount);\n    }\n\n    /**\n     * getScore function\n     * @param addr address\n     */\n    function getScore(address addr) public view returns (uint) {\n        return scores[addr];\n    }\n\n    /**\n     * updateScore function\n     * @param addr address\n     * @param point point to update score\n     */\n    function updateScore(address addr, uint point) public onlyOwner {\n        // get current score\n        uint oldScore = scores[addr];\n        uint newScore = oldScore + point;\n        scores[addr] = newScore;\n\n        emit UpdateScore(addr, scores[addr]);\n    }\n}\n",
  "sourcePath": "/Users/harukikondo/git/Web3PortfolioWallet/packages/backend/contracts/Token/MyToken.sol",
  "compiler": {
    "name": "solc",
    "version": "0.8.10+commit.fc410830.Emscripten.clang"
  },
  "schemaVersion": "3.4.13",
  "updatedAt": "2023-04-14T14:09:41.236Z",
  "networkType": "ethereum",
  "devdoc": {
    "kind": "dev",
    "methods": {
      "DOMAIN_SEPARATOR()": {
        "details": "See {IERC20Permit-DOMAIN_SEPARATOR}."
      },
      "allowance(address,address)": {
        "details": "See {IERC20-allowance}."
      },
      "approve(address,uint256)": {
        "details": "See {IERC20-approve}. NOTE: If `amount` is the maximum `uint256`, the allowance is not updated on `transferFrom`. This is semantically equivalent to an infinite approval. Requirements: - `spender` cannot be the zero address."
      },
      "balanceOf(address)": {
        "details": "See {IERC20-balanceOf}."
      },
      "burn(uint256)": {
        "details": "Destroys `amount` tokens from the caller. See {ERC20-_burn}."
      },
      "burnFrom(address,uint256)": {
        "details": "Destroys `amount` tokens from `account`, deducting from the caller's allowance. See {ERC20-_burn} and {ERC20-allowance}. Requirements: - the caller must have allowance for ``accounts``'s tokens of at least `amount`."
      },
      "burnToken(address,uint256)": {
        "params": {
          "amount": "amount",
          "to": "address"
        }
      },
      "checkpoints(address,uint32)": {
        "details": "Get the `pos`-th checkpoint for `account`."
      },
      "constructor": {
        "params": {
          "_name": "token name",
          "_symbol": "symbol"
        }
      },
      "decimals()": {
        "details": "Returns the number of decimals used to get its user representation. For example, if `decimals` equals `2`, a balance of `505` tokens should be displayed to a user as `5.05` (`505 / 10 ** 2`). Tokens usually opt for a value of 18, imitating the relationship between Ether and Wei. This is the value {ERC20} uses, unless this function is overridden; NOTE: This information is only used for _display_ purposes: it in no way affects any of the arithmetic of the contract, including {IERC20-balanceOf} and {IERC20-transfer}."
      },
      "decreaseAllowance(address,uint256)": {
        "details": "Atomically decreases the allowance granted to `spender` by the caller. This is an alternative to {approve} that can be used as a mitigation for problems described in {IERC20-approve}. Emits an {Approval} event indicating the updated allowance. Requirements: - `spender` cannot be the zero address. - `spender` must have allowance for the caller of at least `subtractedValue`."
      },
      "delegate(address)": {
        "details": "Delegate votes from the sender to `delegatee`."
      },
      "delegateBySig(address,uint256,uint256,uint8,bytes32,bytes32)": {
        "details": "Delegates votes from signer to `delegatee`"
      },
      "delegates(address)": {
        "details": "Get the address `account` is currently delegating to."
      },
      "getPastTotalSupply(uint256)": {
        "details": "Retrieve the `totalSupply` at the end of `blockNumber`. Note, this value is the sum of all balances. It is but NOT the sum of all the delegated votes! Requirements: - `blockNumber` must have been already mined"
      },
      "getPastVotes(address,uint256)": {
        "details": "Retrieve the number of votes for `account` at the end of `blockNumber`. Requirements: - `blockNumber` must have been already mined"
      },
      "getScore(address)": {
        "params": {
          "addr": "address"
        }
      },
      "getVotes(address)": {
        "details": "Gets the current votes balance for `account`"
      },
      "increaseAllowance(address,uint256)": {
        "details": "Atomically increases the allowance granted to `spender` by the caller. This is an alternative to {approve} that can be used as a mitigation for problems described in {IERC20-approve}. Emits an {Approval} event indicating the updated allowance. Requirements: - `spender` cannot be the zero address."
      },
      "mint(address,uint256)": {
        "params": {
          "amount": "amount",
          "to": "address"
        }
      },
      "name()": {
        "details": "Returns the name of the token."
      },
      "nonces(address)": {
        "details": "See {IERC20Permit-nonces}."
      },
      "numCheckpoints(address)": {
        "details": "Get number of checkpoints for `account`."
      },
      "owner()": {
        "details": "Returns the address of the current owner."
      },
      "paused()": {
        "details": "Returns true if the contract is paused, and false otherwise."
      },
      "permit(address,address,uint256,uint256,uint8,bytes32,bytes32)": {
        "details": "See {IERC20Permit-permit}."
      },
      "renounceOwnership()": {
        "details": "Leaves the contract without owner. It will not be possible to call `onlyOwner` functions anymore. Can only be called by the current owner. NOTE: Renouncing ownership will leave the contract without an owner, thereby removing any functionality that is only available to the owner."
      },
      "symbol()": {
        "details": "Returns the symbol of the token, usually a shorter version of the name."
      },
      "totalSupply()": {
        "details": "See {IERC20-totalSupply}."
      },
      "transfer(address,uint256)": {
        "details": "See {IERC20-transfer}. Requirements: - `to` cannot be the zero address. - the caller must have a balance of at least `amount`."
      },
      "transferFrom(address,address,uint256)": {
        "details": "See {IERC20-transferFrom}. Emits an {Approval} event indicating the updated allowance. This is not required by the EIP. See the note at the beginning of {ERC20}. NOTE: Does not update the allowance if the current allowance is the maximum `uint256`. Requirements: - `from` and `to` cannot be the zero address. - `from` must have a balance of at least `amount`. - the caller must have allowance for ``from``'s tokens of at least `amount`."
      },
      "transferOwnership(address)": {
        "details": "Transfers ownership of the contract to a new account (`newOwner`). Can only be called by the current owner."
      },
      "updateScore(address,uint256)": {
        "params": {
          "addr": "address",
          "point": "point to update score"
        }
      }
    },
    "version": 1
  },
  "userdoc": {
    "kind": "user",
    "methods": {
      "burnToken(address,uint256)": {
        "notice": "burn"
      },
      "constructor": {
        "notice": "constructor"
      },
      "getScore(address)": {
        "notice": "getScore function"
      },
      "mint(address,uint256)": {
        "notice": "mint function"
      },
      "pause()": {
        "notice": "pause function"
      },
      "unpause()": {
        "notice": "unpause function"
      },
      "updateScore(address,uint256)": {
        "notice": "updateScore function"
      }
    },
    "notice": "MyToken Contract",
    "version": 1
  }
}